{
  "_format": "hh-sol-artifact-1",
  "contractName": "AgentRegistry",
  "sourceName": "contracts/AgentRegistry.sol",
  "abi": [
    {
      "inputs": [],
      "stateMutability": "nonpayable",
      "type": "constructor"
    },
    {
      "anonymous": false,
      "inputs": [
        {
          "indexed": true,
          "internalType": "address",
          "name": "agent",
          "type": "address"
        }
      ],
      "name": "AgentAdded",
      "type": "event"
    },
    {
      "anonymous": false,
      "inputs": [
        {
          "indexed": true,
          "internalType": "address",
          "name": "agent",
          "type": "address"
        }
      ],
      "name": "AgentRemoved",
      "type": "event"
    },
    {
      "inputs": [
        {
          "internalType": "address",
          "name": "_agent",
          "type": "address"
        }
      ],
      "name": "addAgent",
      "outputs": [],
      "stateMutability": "nonpayable",
      "type": "function"
    },
    {
      "inputs": [
        {
          "internalType": "address",
          "name": "",
          "type": "address"
        }
      ],
      "name": "approvedAgents",
      "outputs": [
        {
          "internalType": "bool",
          "name": "",
          "type": "bool"
        }
      ],
      "stateMutability": "view",
      "type": "function"
    },
    {
      "inputs": [
        {
          "internalType": "address",
          "name": "_agent",
          "type": "address"
        }
      ],
      "name": "isAgent",
      "outputs": [
        {
          "internalType": "bool",
          "name": "",
          "type": "bool"
        }
      ],
      "stateMutability": "view",
      "type": "function"
    },
    {
      "inputs": [],
      "name": "owner",
      "outputs": [
        {
          "internalType": "address",
          "name": "",
          "type": "address"
        }
      ],
      "stateMutability": "view",
      "type": "function"
    },
    {
      "inputs": [
        {
          "internalType": "address",
          "name": "_agent",
          "type": "address"
        }
      ],
      "name": "removeAgent",
      "outputs": [],
      "stateMutability": "nonpayable",
      "type": "function"
    },
    {
      "inputs": [
        {
          "internalType": "address",
          "name": "_newOwner",
          "type": "address"
        }
      ],
      "name": "transferOwnership",
      "outputs": [],
      "stateMutability": "nonpayable",
      "type": "function"
    }
  ],
  "bytecode": "0x6080806040523461002857600080546001600160a01b031916331790556103c8908161002e8239f35b600080fdfe608060408181526004908136101561001657600080fd5b600092833560e01c90816312b8874b1461031a575080631ffbb064146102db57806384e79842146101da5780638da5cb5b146101ae57806397a6278e146100f35763f2fde38b1461006657600080fd5b346100ef5760203660031901126100ef576001600160a01b038235818116939192908490036100eb5761009e8554938416331461035a565b83156100b65750506001600160a01b03191617815580f35b906020606492519162461bcd60e51b8352820152600f60248201526e496e76616c6964206164647265737360881b6044820152fd5b8480fd5b8280fd5b50346100ef5760203660031901126100ef5781356001600160a01b0381811693918490036100eb5761012990855416331461035a565b828452600160205260ff828520541615610177575081835260016020528220805460ff191690557fed9c8ad8d5a0a66898ea49d2956929c93ae2e8bd50281b2ed897c5d1a6737e0b8280a280f35b6020606492519162461bcd60e51b835282015260126024820152711059d95b9d081b9bdd08185c1c1c9bdd995960721b6044820152fd5b8382346101d657816003193601126101d657905490516001600160a01b039091168152602090f35b5080fd5b50346100ef5760203660031901126100ef5781356001600160a01b0381811693918490036100eb5761021090855416331461035a565b82156102a157828452600160205260ff8285205416610266575081835260016020528220600160ff198254161790557ff68e73cec97f2d70aa641fb26e87a4383686e2efacb648f2165aeb02ac562ec58280a280f35b6020606492519162461bcd60e51b835282015260166024820152751059d95b9d08185b1c9958591e48185c1c1c9bdd995960521b6044820152fd5b6020606492519162461bcd60e51b83528201526015602482015274496e76616c6964206167656e74206164647265737360581b6044820152fd5b5090346100ef5760203660031901126100ef57356001600160a01b038116908190036100ef57818360ff92602095526001855220541690519015158152f35b9290503461035657602036600319011261035657356001600160a01b038116908190036103565783526001602090815292205460ff1615158152f35b8380fd5b1561036157565b60405162461bcd60e51b81526020600482015260096024820152682737ba1037bbb732b960b91b6044820152606490fdfea264697066735822122083729c0e0c6a058917cd034b389d7658ed7e53c4063c27568470251611f5749c64736f6c63430008140033",
  "linkReferences": {},
  "deployedLinkReferences": {}
}