{
  "_format": "hh-sol-artifact-1",
  "contractName": "AutoYieldVault",
  "sourceName": "contracts/AutoYieldVault.sol",
  "abi": [
    {
      "inputs": [
        {
          "internalType": "contract IERC20Metadata",
          "name": "_underlyingAsset",
          "type": "address"
        },
        {
          "internalType": "string",
          "name": "_name",
          "type": "string"
        },
        {
          "internalType": "string",
          "name": "_symbol",
          "type": "string"
        }
      ],
      "stateMutability": "nonpayable",
      "type": "constructor"
    },
    {
      "anonymous": false,
      "inputs": [
        {
          "indexed": true,
          "internalType": "address",
          "name": "owner",
          "type": "address"
        },
        {
          "indexed": true,
          "internalType": "address",
          "name": "spender",
          "type": "address"
        },
        {
          "indexed": false,
          "internalType": "uint256",
          "name": "value",
          "type": "uint256"
        }
      ],
      "name": "Approval",
      "type": "event"
    },
    {
      "anonymous": false,
      "inputs": [
        {
          "indexed": true,
          "internalType": "address",
          "name": "sender",
          "type": "address"
        },
        {
          "indexed": true,
          "internalType": "address",
          "name": "receiver",
          "type": "address"
        },
        {
          "indexed": false,
          "internalType": "uint256",
          "name": "assets",
          "type": "uint256"
        },
        {
          "indexed": false,
          "internalType": "uint256",
          "name": "shares",
          "type": "uint256"
        }
      ],
      "name": "Deposit",
      "type": "event"
    },
    {
      "anonymous": false,
      "inputs": [
        {
          "indexed": true,
          "internalType": "address",
          "name": "pausedBy",
          "type": "address"
        },
        {
          "indexed": false,
          "internalType": "uint256",
          "name": "timestamp",
          "type": "uint256"
        }
      ],
      "name": "EmergencyPaused",
      "type": "event"
    },
    {
      "anonymous": false,
      "inputs": [
        {
          "indexed": true,
          "internalType": "address",
          "name": "unpausedBy",
          "type": "address"
        },
        {
          "indexed": false,
          "internalType": "uint256",
          "name": "timestamp",
          "type": "uint256"
        }
      ],
      "name": "EmergencyUnpaused",
      "type": "event"
    },
    {
      "anonymous": false,
      "inputs": [
        {
          "indexed": true,
          "internalType": "address",
          "name": "user",
          "type": "address"
        },
        {
          "indexed": true,
          "internalType": "address",
          "name": "receiver",
          "type": "address"
        },
        {
          "indexed": false,
          "internalType": "uint256",
          "name": "assets",
          "type": "uint256"
        },
        {
          "indexed": false,
          "internalType": "uint256",
          "name": "shares",
          "type": "uint256"
        }
      ],
      "name": "EmergencyWithdrawal",
      "type": "event"
    },
    {
      "anonymous": false,
      "inputs": [
        {
          "indexed": false,
          "internalType": "address[]",
          "name": "protocols",
          "type": "address[]"
        },
        {
          "indexed": false,
          "internalType": "uint256[]",
          "name": "percentages",
          "type": "uint256[]"
        },
        {
          "indexed": false,
          "internalType": "uint256",
          "name": "totalAssetsDeployed",
          "type": "uint256"
        }
      ],
      "name": "Rebalanced",
      "type": "event"
    },
    {
      "anonymous": false,
      "inputs": [
        {
          "indexed": true,
          "internalType": "address",
          "name": "from",
          "type": "address"
        },
        {
          "indexed": true,
          "internalType": "address",
          "name": "to",
          "type": "address"
        },
        {
          "indexed": false,
          "internalType": "uint256",
          "name": "value",
          "type": "uint256"
        }
      ],
      "name": "Transfer",
      "type": "event"
    },
    {
      "anonymous": false,
      "inputs": [
        {
          "indexed": true,
          "internalType": "address",
          "name": "sender",
          "type": "address"
        },
        {
          "indexed": true,
          "internalType": "address",
          "name": "receiver",
          "type": "address"
        },
        {
          "indexed": true,
          "internalType": "address",
          "name": "owner",
          "type": "address"
        },
        {
          "indexed": false,
          "internalType": "uint256",
          "name": "assets",
          "type": "uint256"
        },
        {
          "indexed": false,
          "internalType": "uint256",
          "name": "shares",
          "type": "uint256"
        }
      ],
      "name": "Withdraw",
      "type": "event"
    },
    {
      "inputs": [
        {
          "internalType": "address",
          "name": "owner",
          "type": "address"
        },
        {
          "internalType": "address",
          "name": "spender",
          "type": "address"
        }
      ],
      "name": "allowance",
      "outputs": [
        {
          "internalType": "uint256",
          "name": "",
          "type": "uint256"
        }
      ],
      "stateMutability": "view",
      "type": "function"
    },
    {
      "inputs": [
        {
          "internalType": "address",
          "name": "spender",
          "type": "address"
        },
        {
          "internalType": "uint256",
          "name": "amount",
          "type": "uint256"
        }
      ],
      "name": "approve",
      "outputs": [
        {
          "internalType": "bool",
          "name": "",
          "type": "bool"
        }
      ],
      "stateMutability": "nonpayable",
      "type": "function"
    },
    {
      "inputs": [
        {
          "internalType": "address",
          "name": "account",
          "type": "address"
        }
      ],
      "name": "balanceOf",
      "outputs": [
        {
          "internalType": "uint256",
          "name": "",
          "type": "uint256"
        }
      ],
      "stateMutability": "view",
      "type": "function"
    },
    {
      "inputs": [
        {
          "internalType": "uint256",
          "name": "",
          "type": "uint256"
        }
      ],
      "name": "currentAllocations",
      "outputs": [
        {
          "internalType": "address",
          "name": "protocol",
          "type": "address"
        },
        {
          "internalType": "uint256",
          "name": "percentage",
          "type": "uint256"
        }
      ],
      "stateMutability": "view",
      "type": "function"
    },
    {
      "inputs": [],
      "name": "decimals",
      "outputs": [
        {
          "internalType": "uint8",
          "name": "",
          "type": "uint8"
        }
      ],
      "stateMutability": "view",
      "type": "function"
    },
    {
      "inputs": [
        {
          "internalType": "address",
          "name": "spender",
          "type": "address"
        },
        {
          "internalType": "uint256",
          "name": "subtractedValue",
          "type": "uint256"
        }
      ],
      "name": "decreaseAllowance",
      "outputs": [
        {
          "internalType": "bool",
          "name": "",
          "type": "bool"
        }
      ],
      "stateMutability": "nonpayable",
      "type": "function"
    },
    {
      "inputs": [
        {
          "internalType": "uint256",
          "name": "assets",
          "type": "uint256"
        },
        {
          "internalType": "address",
          "name": "receiver",
          "type": "address"
        }
      ],
      "name": "deposit",
      "outputs": [
        {
          "internalType": "uint256",
          "name": "shares",
          "type": "uint256"
        }
      ],
      "stateMutability": "nonpayable",
      "type": "function"
    },
    {
      "inputs": [],
      "name": "emergencyPause",
      "outputs": [],
      "stateMutability": "nonpayable",
      "type": "function"
    },
    {
      "inputs": [],
      "name": "emergencyUnpause",
      "outputs": [],
      "stateMutability": "nonpayable",
      "type": "function"
    },
    {
      "inputs": [
        {
          "internalType": "uint256",
          "name": "shares",
          "type": "uint256"
        },
        {
          "internalType": "address",
          "name": "receiver",
          "type": "address"
        }
      ],
      "name": "emergencyWithdraw",
      "outputs": [
        {
          "internalType": "uint256",
          "name": "assets",
          "type": "uint256"
        }
      ],
      "stateMutability": "nonpayable",
      "type": "function"
    },
    {
      "inputs": [],
      "name": "getTotalShares",
      "outputs": [
        {
          "internalType": "uint256",
          "name": "",
          "type": "uint256"
        }
      ],
      "stateMutability": "view",
      "type": "function"
    },
    {
      "inputs": [
        {
          "internalType": "address",
          "name": "spender",
          "type": "address"
        },
        {
          "internalType": "uint256",
          "name": "addedValue",
          "type": "uint256"
        }
      ],
      "name": "increaseAllowance",
      "outputs": [
        {
          "internalType": "bool",
          "name": "",
          "type": "bool"
        }
      ],
      "stateMutability": "nonpayable",
      "type": "function"
    },
    {
      "inputs": [],
      "name": "name",
      "outputs": [
        {
          "internalType": "string",
          "name": "",
          "type": "string"
        }
      ],
      "stateMutability": "view",
      "type": "function"
    },
    {
      "inputs": [],
      "name": "paused",
      "outputs": [
        {
          "internalType": "bool",
          "name": "",
          "type": "bool"
        }
      ],
      "stateMutability": "view",
      "type": "function"
    },
    {
      "inputs": [
        {
          "internalType": "address[]",
          "name": "_protocols",
          "type": "address[]"
        },
        {
          "internalType": "uint256[]",
          "name": "_percentages",
          "type": "uint256[]"
        },
        {
          "internalType": "address",
          "name": "_receiver",
          "type": "address"
        }
      ],
      "name": "rebalance",
      "outputs": [],
      "stateMutability": "nonpayable",
      "type": "function"
    },
    {
      "inputs": [
        {
          "internalType": "address",
          "name": "_manager",
          "type": "address"
        }
      ],
      "name": "setStrategyManager",
      "outputs": [],
      "stateMutability": "nonpayable",
      "type": "function"
    },
    {
      "inputs": [],
      "name": "strategyManager",
      "outputs": [
        {
          "internalType": "address",
          "name": "",
          "type": "address"
        }
      ],
      "stateMutability": "view",
      "type": "function"
    },
    {
      "inputs": [],
      "name": "symbol",
      "outputs": [
        {
          "internalType": "string",
          "name": "",
          "type": "string"
        }
      ],
      "stateMutability": "view",
      "type": "function"
    },
    {
      "inputs": [],
      "name": "totalAssets",
      "outputs": [
        {
          "internalType": "uint256",
          "name": "total",
          "type": "uint256"
        }
      ],
      "stateMutability": "view",
      "type": "function"
    },
    {
      "inputs": [],
      "name": "totalSupply",
      "outputs": [
        {
          "internalType": "uint256",
          "name": "",
          "type": "uint256"
        }
      ],
      "stateMutability": "view",
      "type": "function"
    },
    {
      "inputs": [
        {
          "internalType": "address",
          "name": "to",
          "type": "address"
        },
        {
          "internalType": "uint256",
          "name": "amount",
          "type": "uint256"
        }
      ],
      "name": "transfer",
      "outputs": [
        {
          "internalType": "bool",
          "name": "",
          "type": "bool"
        }
      ],
      "stateMutability": "nonpayable",
      "type": "function"
    },
    {
      "inputs": [
        {
          "internalType": "address",
          "name": "from",
          "type": "address"
        },
        {
          "internalType": "address",
          "name": "to",
          "type": "address"
        },
        {
          "internalType": "uint256",
          "name": "amount",
          "type": "uint256"
        }
      ],
      "name": "transferFrom",
      "outputs": [
        {
          "internalType": "bool",
          "name": "",
          "type": "bool"
        }
      ],
      "stateMutability": "nonpayable",
      "type": "function"
    },
    {
      "inputs": [],
      "name": "underlyingAsset",
      "outputs": [
        {
          "internalType": "contract IERC20",
          "name": "",
          "type": "address"
        }
      ],
      "stateMutability": "view",
      "type": "function"
    },
    {
      "inputs": [],
      "name": "underlyingDecimals",
      "outputs": [
        {
          "internalType": "uint8",
          "name": "",
          "type": "uint8"
        }
      ],
      "stateMutability": "view",
      "type": "function"
    },
    {
      "inputs": [
        {
          "internalType": "uint256",
          "name": "shares",
          "type": "uint256"
        },
        {
          "internalType": "address",
          "name": "receiver",
          "type": "address"
        }
      ],
      "name": "withdraw",
      "outputs": [
        {
          "internalType": "uint256",
          "name": "assets",
          "type": "uint256"
        }
      ],
      "stateMutability": "nonpayable",
      "type": "function"
    }
  ],
  "bytecode": "0x60c080604052346200042257620029f2803803809162000020828562000427565b83398101606082820312620004225781516001600160a01b038116919082900362000422576020838101516001600160401b0394919391908581116200042257836200006e9183016200044b565b92604082015186811162000422576200008892016200044b565b9180519480861162000322576003958654906001938483811c9316801562000417575b8884101462000401578190601f93848111620003ab575b508890848311600114620003445760009262000338575b5050600019828a1b1c191690841b1787555b8451918211620003225760049485548481811c9116801562000317575b888210146200030257828111620002bb575b50968291879860009897985087918411600114620002505760009362000244575b505082841b92600019911b1c19161784555b6005556006805460ff60a01b19169055608081905260405163313ce56760e01b815292839182905afa9182156200023857600092620001f3575b8260a05260405161252f9081620004c38239608051818181610395015281816104cb015281816109c601528181610ae601528181610b0c015281816112bb015281816116e501526120ab015260a051818181610435015281816113060152818161141e01526117300152f35b81813d831162000230575b6200020a818362000427565b810103126200022c57519060ff82168203620002295750388062000187565b80fd5b5080fd5b503d620001fe565b6040513d6000823e3d90fd5b0151915038806200013b565b9190859450601f1984169289600052886000209360005b8a828210620002a4575050851162000289575b50505050811b0184556200014d565b01519060f884600019921b161c19169055388080806200027a565b838501518755899890960195938401930162000267565b86600052876000208380860160051c8201928a8710620002f8575b0160051c01905b818110620002ec57506200011a565b600081558501620002dd565b92508192620002d6565b602287634e487b7160e01b6000525260246000fd5b90607f169062000108565b634e487b7160e01b600052604160045260246000fd5b015190503880620000d9565b90869350601f198316918b6000528a6000209260005b8c8282106200039457505084116200037b575b505050811b018755620000eb565b0151600019838c1b60f8161c191690553880806200036d565b8385015186558a979095019493840193016200035a565b90915089600052886000208480850160051c8201928b8610620003f7575b918891869594930160051c01915b828110620003e7575050620000c2565b60008155859450889101620003d7565b92508192620003c9565b634e487b7160e01b600052602260045260246000fd5b92607f1692620000ab565b600080fd5b601f909101601f19168101906001600160401b038211908210176200032257604052565b919080601f8401121562000422578251906001600160401b03821162000322576040519160209162000487601f8301601f191684018562000427565b818452828287010111620004225760005b818110620004ae57508260009394955001015290565b85810183015184820184015282016200049856fe6080604052600436101561001257600080fd5b60003560e01c8062f714ce1461165357806301e1d1141461163057806306fdde03146115725780630901a3f114611526578063095ea7b31461150057806318160ddd1461018457806323b872dd1461144257806325a760c2146114045780632f940c701461122f578063313ce5671461121357806339509351146111c257806339b70e38146111995780634a4e3bd51461113757806351858e27146110cf5780635469c912146107505780635c966646146106ba5780635c975abb146106945780636e553f65146103fe57806370a08231146103c45780637158da7c1461037f57806395d89b411461027a578063a457c2d7146101d3578063a9059cbb146101a2578063d5002f2e146101845763dd62ed3e1461012e57600080fd5b3461017f57604036600319011261017f576101476117f6565b61014f6117e0565b9060018060a01b038091166000526001602052604060002091166000526020526020604060002054604051908152f35b600080fd5b3461017f57600036600319011261017f576020600254604051908152f35b3461017f57604036600319011261017f576101c86101be6117f6565b60243590336118ec565b602060405160018152f35b3461017f57604036600319011261017f576101ec6117f6565b60243590336000526001602052604060002060018060a01b03821660005260205260406000205491808310610227576101c892039033611a5a565b60405162461bcd60e51b815260206004820152602560248201527f45524332303a2064656372656173656420616c6c6f77616e63652062656c6f77604482015264207a65726f60d81b6064820152608490fd5b3461017f57600036600319011261017f57604051600090600454600181811c90808316928315610375575b602093848410811461035f5783865290811561033f57506001146102e4575b6102e0846102d4818803826118a5565b6040519182918261180c565b0390f35b600460009081529294507f8a35acfbc15ff81a39ae7d344fd709f28e8600b4aa8c65c6b64bfe7fe36bd19b5b82841061032c57505050816102e0936102d492820101936102c4565b8054858501870152928501928101610310565b60ff1916858501525050151560051b82010191506102d4816102e06102c4565b634e487b7160e01b600052602260045260246000fd5b91607f16916102a5565b3461017f57600036600319011261017f576040517f00000000000000000000000000000000000000000000000000000000000000006001600160a01b03168152602090f35b3461017f57602036600319011261017f576001600160a01b036103e56117f6565b1660005260006020526020604060002054604051908152f35b3461017f57604036600319011261017f5760043561041a6117e0565b9061042d60ff60065460a01c161561222b565b801561063d577f000000000000000000000000000000000000000000000000000000000000000060ff811660128103610601575050805b61046c61207b565b600254801580156105f9575b156105e1575050905b604051926020936323b872dd60e01b858201523360248201523060448201528260648201526064815260a081019080821067ffffffffffffffff8311176105cb576104ef916040527f0000000000000000000000000000000000000000000000000000000000000000611e9f565b6001600160a01b03169081156105865761050b836002546118df565b600255816000526000845260406000208381540190558160007fddf252ad1be2c89b69c2b068fc378daa952ba7f163c4a11628f55a4df523b3ef86604051878152a360405190815282848201527fdcbc1c05240f31ff3ad067ef1ee35ce4997762752e3a095284754544f4c709d760403392a3604051908152f35b60405162461bcd60e51b815260048101859052601f60248201527f45524332303a206d696e7420746f20746865207a65726f2061646472657373006044820152606490fd5b634e487b7160e01b600052604160045260246000fd5b6105ee906105f393611c72565b611c85565b90610481565b508115610478565b601211156106285761061d61061861062392611cc5565b611cd6565b82611c72565b610464565b61063761061861062392611cb2565b82611c85565b60405162461bcd60e51b815260206004820152602960248201527f4175746f5969656c643a204465706f736974206d75737420626520677265617460448201526806572207468616e20360bc1b6064820152608490fd5b3461017f57600036600319011261017f57602060ff60065460a01c166040519015158152f35b3461017f57602036600319011261017f576106d36117f6565b600654906001600160a01b03908183166106fb576001600160a01b0319909216911617600655005b60405162461bcd60e51b815260206004820152602760248201527f4175746f5969656c643a205374726174656779206d616e6167657220616c726560448201526618591e481cd95d60ca1b6064820152608490fd5b3461017f57606036600319011261017f5760043567ffffffffffffffff811161017f573660238201121561017f57806004013561078c816118c7565b9161079a60405193846118a5565b81835260208301906024829360051b8201019036821161017f57602401915b8183106110af575050506024359167ffffffffffffffff831161017f573660238401121561017f578260040135916107f0836118c7565b936107fe60405195866118a5565b838552602085016024819560051b8301019136831161017f57602401905b82821061109f5750506044359290506001600160a01b038316830361017f576006546001600160a01b03811633036110475760ff61085e9160a01c161561222b565b805185510361100a57805115610fcc57600092835b86518510156108a05761089461089a9161088d878a612295565b51906118df565b9461206c565b93610873565b869450612710869103610f76576108b561207b565b918351936108c2856118c7565b946108d060405196876118a5565b8086526108df601f19916118c7565b0136602087013760005b8151811015610923578061271061090d61090661091e948c612295565b5188611c72565b046109188289612295565b5261206c565b6108e9565b508686869560005b8451811015610d82576001600160a01b036109468287612295565b511690610953818a612295565b51600080600754905b818110610c88575b505080821115610b765761097791611ca5565b918261098e575b50610989915061206c565b61092b565b60405163095ea7b360e01b60208201526001600160a01b0382166024820152604480820185905281526109c26064826118a5565b80517f00000000000000000000000000000000000000000000000000000000000000006001600160a01b03169060009081906020850182855af190610a05611f97565b82610b44575b5081610b39575b5015610a92575b50604051636e553f6560e01b815260048101939093526001600160a01b0388166024840152602090839060449082906000905af19182610a67575b50610989911560000361206c578961097e565b602090813d8311610a8b575b610a7d81836118a5565b8101031261017f5789610a54565b503d610a73565b906040519163095ea7b360e01b6020840152816024840152600060448401526044835282608081011067ffffffffffffffff6080850111176105cb57600094610b30604492610b0a866080602098016040527f0000000000000000000000000000000000000000000000000000000000000000611e9f565b7f0000000000000000000000000000000000000000000000000000000000000000611e9f565b94505090610a19565b90503b15158c610a12565b80519192508115918215610b5c575b5050908d610a0b565b610b6f9250602080918301019101611e87565b8d80610b53565b818111610b8a575b5050610989915061206c565b90610b9491611ca5565b9182610ba1575b80610b7e565b60405192630a28a47760e01b84526004840152602083602481845afa928315610c7c57600093610c46575b50604051635d043b2960e11b8152600481019390935230602484018190526044840152602090839081600081606481015b03925af19182610c1b575b50610989911560000361206c5789610b9b565b602090813d8311610c3f575b610c3181836118a5565b8101031261017f5789610c08565b503d610c27565b92506020833d602011610c74575b81610c61602093836118a5565b8101031261017f57915191610bfd610bcc565b3d9150610c54565b6040513d6000823e3d90fd5b85610c9282611855565b50546001600160a01b031614610cb057610cab9061206c565b61095c565b50506040516370a0823160e01b8152306004820152602081602481885afa908115610c7c57600091610d50575b5080610cea575b80610964565b90506040519063266d6a8360e11b82526004820152602081602481875afa908115610c7c57600091610d1e575b508b610ce4565b90506020813d602011610d48575b81610d39602093836118a5565b8101031261017f57518b610d17565b3d9150610d2c565b90506020813d602011610d7a575b81610d6b602093836118a5565b8101031261017f57518c610cdd565b3d9150610d5e565b50838660079283546000855580610f03575b5060005b8351811015610e5a576001600160a01b03610db38286612295565b511690610dc08189612295565b51604051926040840184811067ffffffffffffffff8211176105cb576040528352602083019081528654680100000000000000008110156105cb57610e0b6001918281018a55611855565b929092610e4457610e3f9460018060a01b039051166bffffffffffffffffffffffff60a01b8454161783555191015561206c565b610d98565b634e487b7160e01b600052600060045260246000fd5b5082908587604051936060850190606086525180915260808501929060005b818110610ee45750505060209084830382860152519182815201939060005b818110610ece577f4317d59255e73d7f933eea234563e10a088ad889617b8fa7e94b3b5401aca5528580888760408301520390a1005b8251865260209586019590920191600101610e98565b82516001600160a01b0316855260209485019490920191600101610e79565b6001600160ff1b0381168103610f60578460005260017fa66cc928b5edb82af9bd49922954155ab7b0942694bea4ce44661d9a8736c68891811b8201915b828110610f4f575050610d94565b600080825582820155600201610f41565b634e487b7160e01b600052601160045260246000fd5b60405162461bcd60e51b815260206004820152602860248201527f50657263656e7461676573206d7573742073756d20746f203130303030204250604482015267532028313030252960c01b6064820152608490fd5b60405162461bcd60e51b8152602060048201526016602482015275139bc81c1c9bdd1bd8dbdb1cc81cdc1958da599a595960521b6044820152606490fd5b60405162461bcd60e51b8152602060048201526015602482015274082e4e4c2f240d8cadccee8d040dad2e6dac2e8c6d605b1b6044820152606490fd5b60405162461bcd60e51b815260206004820152602a60248201527f4175746f5969656c643a204e6f7420617574686f72697a65642073747261746560448201526933bc9036b0b730b3b2b960b11b6064820152608490fd5b813581526020918201910161081c565b82356001600160a01b038116810361017f578152602092830192016107b9565b3461017f57600036600319011261017f576006546110f7336001600160a01b03831614611b5c565b60ff60a01b1916600160a01b1760065560405142815233907f2e31b3b12b9bb0e82c32f27df5f234fabc95a374f54fd287a7132878d5dc9fc390602090a2005b3461017f57600036600319011261017f5760065461115f336001600160a01b03831614611b5c565b60ff60a01b191660065560405142815233907fdacac23d353cc4fe05be85350ed1e8227ed9edf2323b7cb5aad3174e6a9ce1d690602090a2005b3461017f57600036600319011261017f576006546040516001600160a01b039091168152602090f35b3461017f57604036600319011261017f576101c86111de6117f6565b336000526001602052604060002060018060a01b03821660005260205261120c6024356040600020546118df565b9033611a5a565b3461017f57600036600319011261017f57602060405160128152f35b3461017f57604036600319011261017f5760043561124b6117e0565b611253611ce7565b61125e821515611bce565b336000526020916000835261127a816040600020541015611c26565b61129261128561207b565b6105ee6002549184611c72565b61129c8233611d3d565b6040516370a0823160e01b81523060048201526001600160a01b0391907f000000000000000000000000000000000000000000000000000000000000000086826024818785165afa8015610c7c5786926000916113cf575b5092838161133d9495106113b7575b507f00000000000000000000000000000000000000000000000000000000000000009060ff82166012810361137d57509050958691611e44565b604051928484528584015216907f873da158b95a7e5e83e2f84a94eeadadc115c324112605ca1819b276b3b035fa60403392a36001600555604051908152f35b601211156113a25761139461061861139a93611cc5565b90611c85565b958691611e44565b6113b161061861139a93611cb2565b90611c72565b6113c46113c99183611ca5565b6122a9565b88611303565b809350888092503d83116113fd575b6113e881836118a5565b8101031261017f57905185919061133d6112f4565b503d6113de565b3461017f57600036600319011261017f57602060405160ff7f0000000000000000000000000000000000000000000000000000000000000000168152f35b3461017f57606036600319011261017f5761145b6117f6565b6114636117e0565b6044359060018060a01b038316600052600160205260406000203360005260205260406000205492600019840361149f575b6101c893506118ec565b8284106114bb576114b6836101c895033383611a5a565b611495565b60405162461bcd60e51b815260206004820152601d60248201527f45524332303a20696e73756666696369656e7420616c6c6f77616e63650000006044820152606490fd5b3461017f57604036600319011261017f576101c861151c6117f6565b6024359033611a5a565b3461017f57602036600319011261017f5760043560075481101561017f5761154d90611855565b508054600190910154604080516001600160a01b039093168352602083019190915290f35b3461017f57600036600319011261017f57604051600090600354600181811c90808316928315611626575b602093848410811461035f5783865290811561033f57506001146115cb576102e0846102d4818803826118a5565b600360009081529294507fc2575a0e9e593c00f959f8c92f12db2869c3395a3b0502d05e2516446f71f85b5b82841061161357505050816102e0936102d492820101936102c4565b80548585018701529285019281016115f7565b91607f169161159d565b3461017f57600036600319011261017f57602061164b61207b565b604051908152f35b3461017f57604036600319011261017f5760043561166f6117e0565b611677611ce7565b61168960ff60065460a01c161561222b565b611694821515611bce565b33600052602091600083526116b0816040600020541015611c26565b6116bb61128561207b565b906116c68133611d3d565b6040516370a0823160e01b8152306004820152916001600160a01b03907f00000000000000000000000000000000000000000000000000000000000000009086856024818686165afa8015610c7c5786956000916117a9575b509081816117679493106113b757507f00000000000000000000000000000000000000000000000000000000000000009060ff82166012810361137d57509050958691611e44565b6040519184835285830152339216907ffbde797d201c681b91056529119e0b02407c7bb96a4a2c75c01fc9667232c8db60403392a46001600555604051908152f35b8093929650888092503d83116117d9575b6117c481836118a5565b8101031261017f57905185949061176761171f565b503d6117ba565b602435906001600160a01b038216820361017f57565b600435906001600160a01b038216820361017f57565b6020808252825181830181905290939260005b82811061184157505060409293506000838284010152601f8019910116010190565b81810186015184820160400152850161181f565b60075481101561188f57600760005260011b7fa66cc928b5edb82af9bd49922954155ab7b0942694bea4ce44661d9a8736c6880190600090565b634e487b7160e01b600052603260045260246000fd5b90601f8019910116810190811067ffffffffffffffff8211176105cb57604052565b67ffffffffffffffff81116105cb5760051b60200190565b91908201809211610f6057565b6001600160a01b03908116918215611a0757169182156119b65760008281528060205260408120549180831061196257604082827fddf252ad1be2c89b69c2b068fc378daa952ba7f163c4a11628f55a4df523b3ef958760209652828652038282205586815220818154019055604051908152a3565b60405162461bcd60e51b815260206004820152602660248201527f45524332303a207472616e7366657220616d6f756e7420657863656564732062604482015265616c616e636560d01b6064820152608490fd5b60405162461bcd60e51b815260206004820152602360248201527f45524332303a207472616e7366657220746f20746865207a65726f206164647260448201526265737360e81b6064820152608490fd5b60405162461bcd60e51b815260206004820152602560248201527f45524332303a207472616e736665722066726f6d20746865207a65726f206164604482015264647265737360d81b6064820152608490fd5b6001600160a01b03908116918215611b0b5716918215611abb5760207f8c5be1e5ebec7d5bd14f71427d1e84f3dd0314c0f7b2291e5b200ac8c7c3b925918360005260018252604060002085600052825280604060002055604051908152a3565b60405162461bcd60e51b815260206004820152602260248201527f45524332303a20617070726f766520746f20746865207a65726f206164647265604482015261737360f01b6064820152608490fd5b60405162461bcd60e51b8152602060048201526024808201527f45524332303a20617070726f76652066726f6d20746865207a65726f206164646044820152637265737360e01b6064820152608490fd5b15611b6357565b60405162461bcd60e51b815260206004820152603f60248201527f4175746f5969656c643a204f6e6c79207374726174656779206d616e6167657260448201527f2063616e206578656375746520656d657267656e637920636f6e74726f6c73006064820152608490fd5b15611bd557565b60405162461bcd60e51b815260206004820152602360248201527f4175746f5969656c643a2043616e6e6f7420776974686472617720302073686160448201526272657360e81b6064820152608490fd5b15611c2d57565b60405162461bcd60e51b815260206004820152601e60248201527f4175746f5969656c643a20496e73756666696369656e742073686172657300006044820152606490fd5b81810292918115918404141715610f6057565b8115611c8f570490565b634e487b7160e01b600052601260045260246000fd5b91908203918211610f6057565b60ff6011199116019060ff8211610f6057565b60ff166012039060ff8211610f6057565b60ff16604d8111610f6057600a0a90565b600260055414611cf8576002600555565b60405162461bcd60e51b815260206004820152601f60248201527f5265656e7472616e637947756172643a207265656e7472616e742063616c6c006044820152606490fd5b6001600160a01b03168015611df557600091818352826020526040832054818110611da557817fddf252ad1be2c89b69c2b068fc378daa952ba7f163c4a11628f55a4df523b3ef926020928587528684520360408620558060025403600255604051908152a3565b60405162461bcd60e51b815260206004820152602260248201527f45524332303a206275726e20616d6f756e7420657863656564732062616c616e604482015261636560f01b6064820152608490fd5b60405162461bcd60e51b815260206004820152602160248201527f45524332303a206275726e2066726f6d20746865207a65726f206164647265736044820152607360f81b6064820152608490fd5b60405163a9059cbb60e01b60208201526001600160a01b03929092166024830152604480830193909352918152611e8591611e806064836118a5565b611e9f565b565b9081602091031261017f5751801515810361017f5790565b60408051908101916001600160a01b031667ffffffffffffffff8311828410176105cb57611f0f926040526000806020958685527f5361666545524332303a206c6f772d6c6576656c2063616c6c206661696c656487860152868151910182855af1611f09611f97565b91611fd7565b805190828215928315611f7f575b50505015611f285750565b6084906040519062461bcd60e51b82526004820152602a60248201527f5361666545524332303a204552433230206f7065726174696f6e20646964206e6044820152691bdd081cdd58d8d9595960b21b6064820152fd5b611f8f9350820181019101611e87565b388281611f1d565b3d15611fd2573d9067ffffffffffffffff82116105cb5760405191611fc6601f8201601f1916602001846118a5565b82523d6000602084013e565b606090565b919290156120395750815115611feb575090565b3b15611ff45790565b60405162461bcd60e51b815260206004820152601d60248201527f416464726573733a2063616c6c20746f206e6f6e2d636f6e74726163740000006044820152606490fd5b82519091501561204c5750805190602001fd5b60405162461bcd60e51b8152908190612068906004830161180c565b0390fd5b6000198114610f605760010190565b604080516370a0823160e01b808252306004808401919091526024936001600160a01b03939092602091828188817f00000000000000000000000000000000000000000000000000000000000000008a165afa908115612220576000916121f3575b5095600095600754965b8781106120f957505050505050505090565b8161210382611855565b5054168751858152308882015286818681855afa9081156121e8576000916121bb575b508061213d575b50506121389061206c565b6120e7565b8690858a9c949c518094819363266d6a8360e11b83528c8301525afa9081156121b05760009161217e575b5061217690612138926118df565b98903861212d565b908682813d83116121a9575b61219481836118a5565b810103126121a6575051612138612168565b80fd5b503d61218a565b88513d6000823e3d90fd5b908782813d83116121e1575b6121d181836118a5565b810103126121a657505138612126565b503d6121c7565b89513d6000823e3d90fd5b908382813d8311612219575b61220981836118a5565b810103126121a6575051386120dd565b503d6121ff565b85513d6000823e3d90fd5b1561223257565b60405162461bcd60e51b815260206004820152603560248201527f4175746f5969656c643a20436f6e747261637420697320706175736564202d20604482015274656d657267656e6379206d6f64652061637469766560581b6064820152608490fd5b805182101561188f5760209160051b010190565b6007908154156124f5579160005b82548110156124ec57831561247d576122cf81611855565b5060018060a01b039054166040908151906370a0823160e01b82526004308184015260209260249084818381875afa90811561247257600091612445575b5080612328575b5050505050506123239061206c565b6122b7565b84869a959651809363266d6a8360e11b8252838683015281875afa91821561243a57600092612409575b506123a496959485949093909290918482116123f1576000916123759195611ca5565b9a5b51635d043b2960e11b81529182019384523060208501819052604085015290968793849291839160600190565b03925af192836123c8575b5050612323911560000361206c57903880808080612314565b813d83116123ea575b6123db81836118a5565b8101031261017f5738806123af565b503d6123d1565b6105ee906123ff9395611c72565b916000809a612377565b90918682813d8311612433575b61242081836118a5565b810103126121a6575051906123a4612352565b503d612416565b8a513d6000823e3d90fd5b908582813d831161246b575b61245b81836118a5565b810103126121a65750513861230d565b503d612451565b86513d6000823e3d90fd5b509190505b61248857565b60405162461bcd60e51b815260206004820152603660248201527f4175746f5969656c643a20496e73756666696369656e74206c6971756964697460448201527579206163726f737320616c6c2070726f746f636f6c7360501b6064820152608490fd5b50919050612482565b505056fea2646970667358221220c5d4c1bfd1d5fa4eabc600ea795c5b5881efe2930928eb56a7a3e6899c691e0364736f6c63430008140033",
  "linkReferences": {},
  "deployedLinkReferences": {}
}