{
  "_format": "hh-sol-artifact-1",
  "contractName": "AutoYieldVaultUpgradeable",
  "sourceName": "contracts/AutoYieldVaultUpgradeable.sol",
  "abi": [
    {
      "anonymous": false,
      "inputs": [
        {
          "indexed": false,
          "internalType": "address",
          "name": "previousAdmin",
          "type": "address"
        },
        {
          "indexed": false,
          "internalType": "address",
          "name": "newAdmin",
          "type": "address"
        }
      ],
      "name": "AdminChanged",
      "type": "event"
    },
    {
      "anonymous": false,
      "inputs": [
        {
          "indexed": true,
          "internalType": "address",
          "name": "owner",
          "type": "address"
        },
        {
          "indexed": true,
          "internalType": "address",
          "name": "spender",
          "type": "address"
        },
        {
          "indexed": false,
          "internalType": "uint256",
          "name": "value",
          "type": "uint256"
        }
      ],
      "name": "Approval",
      "type": "event"
    },
    {
      "anonymous": false,
      "inputs": [
        {
          "indexed": true,
          "internalType": "address",
          "name": "beacon",
          "type": "address"
        }
      ],
      "name": "BeaconUpgraded",
      "type": "event"
    },
    {
      "anonymous": false,
      "inputs": [
        {
          "indexed": true,
          "internalType": "address",
          "name": "sender",
          "type": "address"
        },
        {
          "indexed": true,
          "internalType": "address",
          "name": "receiver",
          "type": "address"
        },
        {
          "indexed": false,
          "internalType": "uint256",
          "name": "assets",
          "type": "uint256"
        },
        {
          "indexed": false,
          "internalType": "uint256",
          "name": "shares",
          "type": "uint256"
        }
      ],
      "name": "Deposit",
      "type": "event"
    },
    {
      "anonymous": false,
      "inputs": [
        {
          "indexed": false,
          "internalType": "bool",
          "name": "paused",
          "type": "bool"
        },
        {
          "indexed": true,
          "internalType": "address",
          "name": "pausedBy",
          "type": "address"
        },
        {
          "indexed": false,
          "internalType": "string",
          "name": "reason",
          "type": "string"
        }
      ],
      "name": "EmergencyPaused",
      "type": "event"
    },
    {
      "anonymous": false,
      "inputs": [
        {
          "indexed": false,
          "internalType": "uint8",
          "name": "version",
          "type": "uint8"
        }
      ],
      "name": "Initialized",
      "type": "event"
    },
    {
      "anonymous": false,
      "inputs": [
        {
          "indexed": true,
          "internalType": "address",
          "name": "previousOwner",
          "type": "address"
        },
        {
          "indexed": true,
          "internalType": "address",
          "name": "newOwner",
          "type": "address"
        }
      ],
      "name": "OwnershipTransferred",
      "type": "event"
    },
    {
      "anonymous": false,
      "inputs": [
        {
          "indexed": false,
          "internalType": "address[]",
          "name": "protocols",
          "type": "address[]"
        },
        {
          "indexed": false,
          "internalType": "uint256[]",
          "name": "percentages",
          "type": "uint256[]"
        },
        {
          "indexed": false,
          "internalType": "uint256",
          "name": "totalAssetsDeployed",
          "type": "uint256"
        }
      ],
      "name": "Rebalanced",
      "type": "event"
    },
    {
      "anonymous": false,
      "inputs": [
        {
          "indexed": true,
          "internalType": "address",
          "name": "from",
          "type": "address"
        },
        {
          "indexed": true,
          "internalType": "address",
          "name": "to",
          "type": "address"
        },
        {
          "indexed": false,
          "internalType": "uint256",
          "name": "value",
          "type": "uint256"
        }
      ],
      "name": "Transfer",
      "type": "event"
    },
    {
      "anonymous": false,
      "inputs": [
        {
          "indexed": true,
          "internalType": "address",
          "name": "implementation",
          "type": "address"
        }
      ],
      "name": "Upgraded",
      "type": "event"
    },
    {
      "anonymous": false,
      "inputs": [
        {
          "indexed": true,
          "internalType": "address",
          "name": "sender",
          "type": "address"
        },
        {
          "indexed": true,
          "internalType": "address",
          "name": "receiver",
          "type": "address"
        },
        {
          "indexed": true,
          "internalType": "address",
          "name": "owner",
          "type": "address"
        },
        {
          "indexed": false,
          "internalType": "uint256",
          "name": "assets",
          "type": "uint256"
        },
        {
          "indexed": false,
          "internalType": "uint256",
          "name": "shares",
          "type": "uint256"
        }
      ],
      "name": "Withdraw",
      "type": "event"
    },
    {
      "inputs": [
        {
          "internalType": "address",
          "name": "owner",
          "type": "address"
        },
        {
          "internalType": "address",
          "name": "spender",
          "type": "address"
        }
      ],
      "name": "allowance",
      "outputs": [
        {
          "internalType": "uint256",
          "name": "",
          "type": "uint256"
        }
      ],
      "stateMutability": "view",
      "type": "function"
    },
    {
      "inputs": [
        {
          "internalType": "address",
          "name": "spender",
          "type": "address"
        },
        {
          "internalType": "uint256",
          "name": "amount",
          "type": "uint256"
        }
      ],
      "name": "approve",
      "outputs": [
        {
          "internalType": "bool",
          "name": "",
          "type": "bool"
        }
      ],
      "stateMutability": "nonpayable",
      "type": "function"
    },
    {
      "inputs": [
        {
          "internalType": "address",
          "name": "account",
          "type": "address"
        }
      ],
      "name": "balanceOf",
      "outputs": [
        {
          "internalType": "uint256",
          "name": "",
          "type": "uint256"
        }
      ],
      "stateMutability": "view",
      "type": "function"
    },
    {
      "inputs": [
        {
          "internalType": "uint256",
          "name": "",
          "type": "uint256"
        }
      ],
      "name": "currentAllocations",
      "outputs": [
        {
          "internalType": "address",
          "name": "protocol",
          "type": "address"
        },
        {
          "internalType": "uint256",
          "name": "percentage",
          "type": "uint256"
        }
      ],
      "stateMutability": "view",
      "type": "function"
    },
    {
      "inputs": [],
      "name": "decimals",
      "outputs": [
        {
          "internalType": "uint8",
          "name": "",
          "type": "uint8"
        }
      ],
      "stateMutability": "view",
      "type": "function"
    },
    {
      "inputs": [
        {
          "internalType": "address",
          "name": "spender",
          "type": "address"
        },
        {
          "internalType": "uint256",
          "name": "subtractedValue",
          "type": "uint256"
        }
      ],
      "name": "decreaseAllowance",
      "outputs": [
        {
          "internalType": "bool",
          "name": "",
          "type": "bool"
        }
      ],
      "stateMutability": "nonpayable",
      "type": "function"
    },
    {
      "inputs": [
        {
          "internalType": "uint256",
          "name": "assets",
          "type": "uint256"
        },
        {
          "internalType": "address",
          "name": "receiver",
          "type": "address"
        }
      ],
      "name": "deposit",
      "outputs": [
        {
          "internalType": "uint256",
          "name": "shares",
          "type": "uint256"
        }
      ],
      "stateMutability": "nonpayable",
      "type": "function"
    },
    {
      "inputs": [
        {
          "internalType": "bool",
          "name": "_paused",
          "type": "bool"
        },
        {
          "internalType": "string",
          "name": "_reason",
          "type": "string"
        }
      ],
      "name": "emergencyPause",
      "outputs": [],
      "stateMutability": "nonpayable",
      "type": "function"
    },
    {
      "inputs": [],
      "name": "emergencyPaused",
      "outputs": [
        {
          "internalType": "bool",
          "name": "",
          "type": "bool"
        }
      ],
      "stateMutability": "view",
      "type": "function"
    },
    {
      "inputs": [
        {
          "internalType": "uint256",
          "name": "shares",
          "type": "uint256"
        },
        {
          "internalType": "address",
          "name": "receiver",
          "type": "address"
        }
      ],
      "name": "emergencyWithdraw",
      "outputs": [],
      "stateMutability": "nonpayable",
      "type": "function"
    },
    {
      "inputs": [],
      "name": "getTotalShares",
      "outputs": [
        {
          "internalType": "uint256",
          "name": "",
          "type": "uint256"
        }
      ],
      "stateMutability": "view",
      "type": "function"
    },
    {
      "inputs": [
        {
          "internalType": "address",
          "name": "spender",
          "type": "address"
        },
        {
          "internalType": "uint256",
          "name": "addedValue",
          "type": "uint256"
        }
      ],
      "name": "increaseAllowance",
      "outputs": [
        {
          "internalType": "bool",
          "name": "",
          "type": "bool"
        }
      ],
      "stateMutability": "nonpayable",
      "type": "function"
    },
    {
      "inputs": [
        {
          "internalType": "contract IERC20Upgradeable",
          "name": "_underlyingAsset",
          "type": "address"
        },
        {
          "internalType": "string",
          "name": "_name",
          "type": "string"
        },
        {
          "internalType": "string",
          "name": "_symbol",
          "type": "string"
        }
      ],
      "name": "initialize",
      "outputs": [],
      "stateMutability": "nonpayable",
      "type": "function"
    },
    {
      "inputs": [],
      "name": "maxProtocolAllocation",
      "outputs": [
        {
          "internalType": "uint256",
          "name": "",
          "type": "uint256"
        }
      ],
      "stateMutability": "view",
      "type": "function"
    },
    {
      "inputs": [],
      "name": "name",
      "outputs": [
        {
          "internalType": "string",
          "name": "",
          "type": "string"
        }
      ],
      "stateMutability": "view",
      "type": "function"
    },
    {
      "inputs": [],
      "name": "owner",
      "outputs": [
        {
          "internalType": "address",
          "name": "",
          "type": "address"
        }
      ],
      "stateMutability": "view",
      "type": "function"
    },
    {
      "inputs": [],
      "name": "proxiableUUID",
      "outputs": [
        {
          "internalType": "bytes32",
          "name": "",
          "type": "bytes32"
        }
      ],
      "stateMutability": "view",
      "type": "function"
    },
    {
      "inputs": [
        {
          "internalType": "address[]",
          "name": "_protocols",
          "type": "address[]"
        },
        {
          "internalType": "uint256[]",
          "name": "_percentagesBps",
          "type": "uint256[]"
        }
      ],
      "name": "rebalance",
      "outputs": [],
      "stateMutability": "nonpayable",
      "type": "function"
    },
    {
      "inputs": [],
      "name": "renounceOwnership",
      "outputs": [],
      "stateMutability": "nonpayable",
      "type": "function"
    },
    {
      "inputs": [
        {
          "internalType": "uint256",
          "name": "_maxAllocationBps",
          "type": "uint256"
        }
      ],
      "name": "setMaxProtocolAllocation",
      "outputs": [],
      "stateMutability": "nonpayable",
      "type": "function"
    },
    {
      "inputs": [
        {
          "internalType": "address",
          "name": "_manager",
          "type": "address"
        }
      ],
      "name": "setStrategyManager",
      "outputs": [],
      "stateMutability": "nonpayable",
      "type": "function"
    },
    {
      "inputs": [],
      "name": "strategyManager",
      "outputs": [
        {
          "internalType": "address",
          "name": "",
          "type": "address"
        }
      ],
      "stateMutability": "view",
      "type": "function"
    },
    {
      "inputs": [],
      "name": "symbol",
      "outputs": [
        {
          "internalType": "string",
          "name": "",
          "type": "string"
        }
      ],
      "stateMutability": "view",
      "type": "function"
    },
    {
      "inputs": [],
      "name": "totalAssets",
      "outputs": [
        {
          "internalType": "uint256",
          "name": "total",
          "type": "uint256"
        }
      ],
      "stateMutability": "view",
      "type": "function"
    },
    {
      "inputs": [],
      "name": "totalSupply",
      "outputs": [
        {
          "internalType": "uint256",
          "name": "",
          "type": "uint256"
        }
      ],
      "stateMutability": "view",
      "type": "function"
    },
    {
      "inputs": [
        {
          "internalType": "address",
          "name": "to",
          "type": "address"
        },
        {
          "internalType": "uint256",
          "name": "amount",
          "type": "uint256"
        }
      ],
      "name": "transfer",
      "outputs": [
        {
          "internalType": "bool",
          "name": "",
          "type": "bool"
        }
      ],
      "stateMutability": "nonpayable",
      "type": "function"
    },
    {
      "inputs": [
        {
          "internalType": "address",
          "name": "from",
          "type": "address"
        },
        {
          "internalType": "address",
          "name": "to",
          "type": "address"
        },
        {
          "internalType": "uint256",
          "name": "amount",
          "type": "uint256"
        }
      ],
      "name": "transferFrom",
      "outputs": [
        {
          "internalType": "bool",
          "name": "",
          "type": "bool"
        }
      ],
      "stateMutability": "nonpayable",
      "type": "function"
    },
    {
      "inputs": [
        {
          "internalType": "address",
          "name": "newOwner",
          "type": "address"
        }
      ],
      "name": "transferOwnership",
      "outputs": [],
      "stateMutability": "nonpayable",
      "type": "function"
    },
    {
      "inputs": [],
      "name": "underlyingAsset",
      "outputs": [
        {
          "internalType": "contract IERC20Upgradeable",
          "name": "",
          "type": "address"
        }
      ],
      "stateMutability": "view",
      "type": "function"
    },
    {
      "inputs": [
        {
          "internalType": "address",
          "name": "newImplementation",
          "type": "address"
        }
      ],
      "name": "upgradeTo",
      "outputs": [],
      "stateMutability": "nonpayable",
      "type": "function"
    },
    {
      "inputs": [
        {
          "internalType": "address",
          "name": "newImplementation",
          "type": "address"
        },
        {
          "internalType": "bytes",
          "name": "data",
          "type": "bytes"
        }
      ],
      "name": "upgradeToAndCall",
      "outputs": [],
      "stateMutability": "payable",
      "type": "function"
    },
    {
      "inputs": [
        {
          "internalType": "uint256",
          "name": "shares",
          "type": "uint256"
        },
        {
          "internalType": "address",
          "name": "receiver",
          "type": "address"
        }
      ],
      "name": "withdraw",
      "outputs": [
        {
          "internalType": "uint256",
          "name": "assets",
          "type": "uint256"
        }
      ],
      "stateMutability": "nonpayable",
      "type": "function"
    }
  ],
  "bytecode": "0x60a08060405234610037573060805261138860ff55612f8e908161003d8239608051818181610df601528181610ef801526110a20152f35b600080fdfe6080604052600436101561001257600080fd5b60003560e01c8062f714ce14611bf757806301e1d11414611bd457806306fdde0314611b405780630901a3f114611af4578063095ea7b314611ace57806318160ddd1461027e57806323b872dd14611a1057806327c830a9146119ed5780632be011901461123d5780632f940c701461112b578063313ce5671461110f5780633659cfe61461107c578063395093511461102b57806339b70e38146110025780634f1ef28614610ea757806352d1902d14610de357806354be8c7c14610d1d5780635c96664614610c2b57806366a1effa14610bb25780636e553f65146109b257806370a0823114610978578063715018a61461091b5780637158da7c146108f25780638da5cb5b146108c9578063906571471461045257806395d89b4114610374578063a457c2d7146102cd578063a9059cbb1461029c578063d5002f2e1461027e578063dd62ed3e1461022d578063ec704c8a1461020f5763f2fde38b1461017b57600080fd5b3461020a57602036600319011261020a57610194611dd2565b61019c611f29565b6001600160a01b038116156101b6576101b490611f81565b005b60405162461bcd60e51b815260206004820152602660248201527f4f776e61626c653a206e6577206f776e657220697320746865207a65726f206160448201526564647265737360d01b6064820152608490fd5b600080fd5b3461020a57600036600319011261020a57602060ff54604051908152f35b3461020a57604036600319011261020a57610246611dd2565b61024e611dbc565b9060018060a01b038091166000526034602052604060002091166000526020526020604060002054604051908152f35b3461020a57600036600319011261020a576020603554604051908152f35b3461020a57604036600319011261020a576102c26102b8611dd2565b6024359033612027565b602060405160018152f35b3461020a57604036600319011261020a576102e6611dd2565b60243590336000526034602052604060002060018060a01b03821660005260205260406000205491808310610321576102c292039033612197565b60405162461bcd60e51b815260206004820152602560248201527f45524332303a2064656372656173656420616c6c6f77616e63652062656c6f77604482015264207a65726f60d81b6064820152608490fd5b3461020a57600036600319011261020a57604051600060375461039681611fca565b8084529060019081811690811561042b57506001146103d0575b6103cc846103c081860382611e81565b60405191829182611de8565b0390f35b6037600090815292507f42a7b7dd785cd69714a189dffb3fd7d7174edc9ece837694ce50f7078f7c31ae5b8284106104135750505081016020016103c0826103b0565b805460208587018101919091529093019281016103fb565b60ff191660208087019190915292151560051b850190920192506103c091508390506103b0565b3461020a57606036600319011261020a576004356001600160a01b038116810361020a576024356001600160401b03811161020a57610495903690600401611f0b565b906044356001600160401b03811161020a576104b5903690600401611f0b565b9060005460ff8160081c1615908180926108bc575b80156108a5575b156108495760ff19811660011760005581610837575b5061050260ff60005460081c166104fd81612299565b612299565b83516001600160401b0381116107375761051d603654611fca565b601f81116107ca575b50602094601f82116001146107585794819293949560009261074d575b50508160011b916000199060031b1c1916176036555b82516001600160401b03811161073757610574603754611fca565b601f81116106d2575b506020601f821160011461064e5781929394600092610643575b50508160011b916000199060031b1c1916176037555b6105c260ff60005460081c166104fd81612299565b6105cb33611f81565b600054916105de60ff8460081c16612299565b60018060a01b03166bffffffffffffffffffffffff60a01b60fb54161760fb5560ff1960fe541660fe5561060e57005b61ff0019166000557f7f26b83ff96e1f2b6a682f133852f6798a09c465da95921460cefb3847402498602060405160018152a1005b015190508480610597565b601f1982169060376000527f42a7b7dd785cd69714a189dffb3fd7d7174edc9ece837694ce50f7078f7c31ae9160005b8181106106ba575095836001959697106106a1575b505050811b016037556105ad565b015160001960f88460031b161c19169055848080610693565b9192602060018192868b01518155019401920161067e565b60376000527f42a7b7dd785cd69714a189dffb3fd7d7174edc9ece837694ce50f7078f7c31ae601f830160051c8101916020841061072d575b601f0160051c01905b818110610721575061057d565b60008155600101610714565b909150819061070b565b634e487b7160e01b600052604160045260246000fd5b015190508580610543565b601f198216956036600052600080516020612f198339815191529160005b8881106107b257508360019596979810610799575b505050811b01603655610559565b015160001960f88460031b161c1916905585808061078b565b91926020600181928685015181550194019201610776565b6036600052601f820160051c600080516020612f19833981519152019060208310610821575b601f0160051c600080516020612f1983398151915201905b8181106108155750610526565b60008155600101610808565b600080516020612f1983398151915291506107f0565b61ffff191661010117600055846104e7565b60405162461bcd60e51b815260206004820152602e60248201527f496e697469616c697a61626c653a20636f6e747261637420697320616c72656160448201526d191e481a5b9a5d1a585b1a5e995960921b6064820152608490fd5b50303b1580156104d15750600160ff8216146104d1565b50600160ff8216106104ca565b3461020a57600036600319011261020a576065546040516001600160a01b039091168152602090f35b3461020a57600036600319011261020a5760fb546040516001600160a01b039091168152602090f35b3461020a57600036600319011261020a57610934611f29565b606580546001600160a01b031981169091556000906001600160a01b03167f8be0079c531659141344cd1fd0a4f28419497f9722a3daafe3b4186f6b6457e08280a3005b3461020a57602036600319011261020a576001600160a01b03610999611dd2565b1660005260336020526020604060002054604051908152f35b3461020a57604036600319011261020a576004356109ce611dbc565b6109dd60ff60fe541615612498565b8115610b5b576001600160a01b039081168015926109fb84156124f4565b610a03612308565b6035549081158015610b53575b15610b3b57505080925b60fb541693604051946020956323b872dd60e01b878201523360248201523060448201528360648201526064815260a08101918183106001600160401b0384111761073757610a6b9260405261258b565b610af657610a7b83603554612004565b603555816000526033845260406000208381540190558160007fddf252ad1be2c89b69c2b068fc378daa952ba7f163c4a11628f55a4df523b3ef86604051878152a360405190815282848201527fdcbc1c05240f31ff3ad067ef1ee35ce4997762752e3a095284754544f4c709d760403392a3604051908152f35b60405162461bcd60e51b815260048101859052601f60248201527f45524332303a206d696e7420746f20746865207a65726f2061646472657373006044820152606490fd5b610b48610b4d9284612540565b612553565b92610a1a565b508015610a10565b60405162461bcd60e51b815260206004820152602960248201527f4175746f5969656c643a204465706f736974206d75737420626520677265617460448201526806572207468616e20360bc1b6064820152608490fd5b3461020a57602036600319011261020a57600435610bce611f29565b80151580610c1f575b15610be15760ff55005b60405162461bcd60e51b815260206004820152601660248201527524b73b30b634b21036b0bc1030b63637b1b0ba34b7b760511b6044820152606490fd5b50612710811115610bd7565b3461020a57602036600319011261020a57610c44611dd2565b610c4c611f29565b60fc54906001600160a01b0390818316610cc85716908115610c78576001600160a01b0319161760fc55005b60405162461bcd60e51b815260206004820152602260248201527f4175746f5969656c643a20496e76616c6964206d616e61676572206164647265604482015261737360f01b6064820152608490fd5b60405162461bcd60e51b815260206004820152602760248201527f4175746f5969656c643a205374726174656779206d616e6167657220616c726560448201526618591e481cd95d60ca1b6064820152608490fd5b3461020a57604036600319011261020a5760043580151580910361020a576024356001600160401b039182821161020a573660238301121561020a57816004013592831161020a57366024848401011161020a578260247fad8fd3918b6fb0070875046a666de4eacdc053dc3b6076c0bad656197e868f6793610d9e611f29565b60ff1960fe541660ff85161760fe55604051938452604060208501528260408501520160608301376000606084830101526060813394601f80199101168101030190a2005b3461020a57600036600319011261020a577f00000000000000000000000000000000000000000000000000000000000000006001600160a01b03163003610e3c576020604051600080516020612f398339815191528152f35b60405162461bcd60e51b815260206004820152603860248201527f555550535570677261646561626c653a206d757374206e6f742062652063616c60448201527f6c6564207468726f7567682064656c656761746563616c6c00000000000000006064820152608490fd5b604036600319011261020a57610ebb611dd2565b6024356001600160401b03811161020a573660238201121561020a57610eeb903690602481600401359101611ed4565b6001600160a01b03610f3d7f00000000000000000000000000000000000000000000000000000000000000008216610f2530821415612955565b82600080516020612f398339815191525416146129b6565b610f45611f29565b82168015610fb3573014610f5c576101b491612a17565b60405162461bcd60e51b815260206004820152602960248201527f4175746f5969656c643a2043616e6e6f74207570677261646520746f2073616d60448201526865206164647265737360b81b6064820152608490fd5b60405162461bcd60e51b815260206004820152602160248201527f4175746f5969656c643a20496e76616c696420696d706c656d656e746174696f6044820152603760f91b6064820152608490fd5b3461020a57600036600319011261020a5760fc546040516001600160a01b039091168152602090f35b3461020a57604036600319011261020a576102c2611047611dd2565b336000526034602052604060002060018060a01b038216600052602052611075602435604060002054612004565b9033612197565b3461020a57602036600319011261020a57611095611dd2565b6001600160a01b036110cf7f00000000000000000000000000000000000000000000000000000000000000008216610f2530821415612955565b6110d7611f29565b81168015610fb3573014610f5c5760405160208101918183106001600160401b03841117610737576101b49260405260008252612a17565b3461020a57600036600319011261020a57602060405160128152f35b3461020a57604036600319011261020a57600435611147611dbc565b9060ff60fe5416156111ee5761115e811515612747565b33600052603360205261117881604060002054101561279f565b61119561118c611186612308565b83612540565b60355490612553565b906111a081336127f8565b60018060a01b03906111b783858460fb5416612903565b6040519283526020830152339216907ffbde797d201c681b91056529119e0b02407c7bb96a4a2c75c01fc9667232c8db60403392a4005b60405162461bcd60e51b815260206004820152602160248201527f4175746f5969656c643a204e6f7420696e20656d657267656e637920737461746044820152606560f81b6064820152608490fd5b3461020a57604036600319011261020a576004356001600160401b03811161020a57602336818301121561020a5781600401359061127a82611ea2565b926112886040519485611e81565b82845260208401906024829460051b8201019036821161020a57602401915b8183106119cd57505050602435906001600160401b03821161020a5736818301121561020a578160040135936112dc85611ea2565b926112ea6040519485611e81565b858452602084016024819760051b8301019136831161020a57602401905b8282106119bd57505060fc546001600160a01b0316330390506119655761133460ff60fe541615612498565b805183510361192757600a8151116118d357929360009060009560ff54925b85518810156113e257836113678988612941565b51116113915761138561138b9161137e8a89612941565b5190612004565b976122f9565b96611353565b60405162461bcd60e51b815260206004820152602481018690527f50726f746f636f6c20616c6c6f636174696f6e2065786365656473206d6178696044820152626d756d60e81b6064820152608490fd5b8661271087920361187d576113f5612308565b9360005b82518110156117d4576001600160a01b036114148285612941565b51169061271061142e6114278388612941565b5189612540565b046000906040516370a0823160e01b8152306004820152602081602481885afa908115611796576000916117a2575b5080611730575b82821115611686575090611477916127eb565b80611525575b505b6114898186612941565b5160405192604084018481106001600160401b038211176107375760405283526020830190815260fd805468010000000000000000811015610737576114d6906001928382019055611e31565b92909261150f5761150a9460018060a01b039051166bffffffffffffffffffffffff60a01b845416178355519101556122f9565b6113f9565b634e487b7160e01b600052600060045260246000fd5b60fb5460405163095ea7b360e01b602082018181526001600160a01b0387811660248501526044808501879052845291939190911690600090819061156b606486611e81565b84519082855af161157a612682565b81611657575b508061164d575b156115fb575b50505060405190636e553f6560e01b825260048201523060248201526020816044816000875af190816115d0575b506115ca5761150a91506122f9565b8761147d565b602090813d83116115f4575b6115e68183611e81565b8101031261020a57886115bb565b503d6115dc565b604051926020840152856024840152604460008185015283528260808101106001600160401b036080850111176107375761164083608061164595016040528261258b565b61258b565b88808061158d565b50803b1515611587565b805180159250821561166c575b50508c611580565b61167f9250602080918301019101612573565b8c80611664565b818311611696575b50505061147f565b82610b486116b2926116ad6020956116e0976127eb565b612540565b604051635d043b2960e11b815260048101919091523060248201819052604482015291829081906064820190565b03816000875af19081611705575b506116fd5761150a91506122f9565b87808061168e565b602090813d8311611729575b61171b8183611e81565b8101031261020a57886116ee565b503d611711565b915060405163266d6a8360e11b8152826004820152602081602481885afa90811561179657600091611764575b5091611464565b90506020813d60201161178e575b8161177f60209383611e81565b8101031261020a57518a61175d565b3d9150611772565b6040513d6000823e3d90fd5b90506020813d6020116117cc575b816117bd60209383611e81565b8101031261020a57518a61145d565b3d91506117b0565b5092849192604051936060850190606086525180915260808501929060005b81811061185e5750505060209084830382860152519182815201939060005b818110611848577f4317d59255e73d7f933eea234563e10a088ad889617b8fa7e94b3b5401aca5528580888760408301520390a1005b8251865260209586019590920191600101611812565b82516001600160a01b03168552602094850194909201916001016117f3565b60405162461bcd60e51b815260206004820152602860248201527f50657263656e7461676573206d7573742073756d20746f203130303030204250604482015267532028313030252960c01b6064820152608490fd5b60405162461bcd60e51b815260206004820152602660248201527f476173204c696d69742050726f74656374696f6e3a204d61782031302070726f604482015265746f636f6c7360d01b6064820152608490fd5b60405162461bcd60e51b8152602060048201526016602482015275082e4e4c2f2e640d8cadccee8d040dad2e6dac2e8c6d60531b6044820152606490fd5b60405162461bcd60e51b815260206004820152602a60248201527f4175746f5969656c643a204e6f7420617574686f72697a65642073747261746560448201526933bc9036b0b730b3b2b960b11b6064820152608490fd5b8135815260209182019101611308565b82356001600160a01b038116810361020a578152602092830192016112a7565b3461020a57600036600319011261020a57602060ff60fe54166040519015158152f35b3461020a57606036600319011261020a57611a29611dd2565b611a31611dbc565b6044359060018060a01b0383166000526034602052604060002033600052602052604060002054926000198403611a6d575b6102c29350612027565b828410611a8957611a84836102c295033383612197565b611a63565b60405162461bcd60e51b815260206004820152601d60248201527f45524332303a20696e73756666696369656e7420616c6c6f77616e63650000006044820152606490fd5b3461020a57604036600319011261020a576102c2611aea611dd2565b6024359033612197565b3461020a57602036600319011261020a5760043560fd5481101561020a57611b1b90611e31565b508054600190910154604080516001600160a01b039093168352602083019190915290f35b3461020a57600036600319011261020a576040516000603654611b6281611fca565b8084529060019081811690811561042b5750600114611b8b576103cc846103c081860382611e81565b603660009081529250600080516020612f198339815191525b828410611bbc5750505081016020016103c0826103b0565b80546020858701810191909152909301928101611ba4565b3461020a57600036600319011261020a576020611bef612308565b604051908152f35b3461020a57604036600319011261020a57600435611c13611dbc565b611c2260ff60fe541615612498565b611c2d821515612747565b3360005260209160338352611c4981604060002054101561279f565b6001600160a01b0382811690611c608215156124f4565b611c78611c6b612308565b610b486035549186612540565b93611c8384336127f8565b60fb546040516370a0823160e01b80825230600483015292918416908881602481855afa9384156117965788948a92600091611d88575b508511611d0d575b505050611cd29260fb5416612903565b604051918383528483015233917ffbde797d201c681b91056529119e0b02407c7bb96a4a2c75c01fc9667232c8db60403392a4604051908152f35b9091935060246040518095819382523060048301525afa8015611796578692600091611d53575b5092611d4b611d46611cd295856127eb565b612cc8565b928789611cc2565b809350888092503d8311611d81575b611d6c8183611e81565b8101031261020a579051859190611d4b611d34565b503d611d62565b92809296508391503d8311611db5575b611da28183611e81565b8101031261020a57518793899185611cba565b503d611d98565b602435906001600160a01b038216820361020a57565b600435906001600160a01b038216820361020a57565b6020808252825181830181905290939260005b828110611e1d57505060409293506000838284010152601f8019910116010190565b818101860151848201604001528501611dfb565b60fd54811015611e6b5760fd60005260011b7f9346ac6dd7de6b96975fec380d4d994c4c12e6a8897544f22915316cc6cca2800190600090565b634e487b7160e01b600052603260045260246000fd5b90601f801991011681019081106001600160401b0382111761073757604052565b6001600160401b0381116107375760051b60200190565b6001600160401b03811161073757601f01601f191660200190565b929192611ee082611eb9565b91611eee6040519384611e81565b82948184528183011161020a578281602093846000960137010152565b9080601f8301121561020a57816020611f2693359101611ed4565b90565b6065546001600160a01b03163303611f3d57565b606460405162461bcd60e51b815260206004820152602060248201527f4f776e61626c653a2063616c6c6572206973206e6f7420746865206f776e65726044820152fd5b606580546001600160a01b039283166001600160a01b0319821681179092559091167f8be0079c531659141344cd1fd0a4f28419497f9722a3daafe3b4186f6b6457e0600080a3565b90600182811c92168015611ffa575b6020831014611fe457565b634e487b7160e01b600052602260045260246000fd5b91607f1691611fd9565b9190820180921161201157565b634e487b7160e01b600052601160045260246000fd5b6001600160a01b0390811691821561214457169182156120f3576000828152603360205260408120549180831061209f57604082827fddf252ad1be2c89b69c2b068fc378daa952ba7f163c4a11628f55a4df523b3ef95876020965260338652038282205586815220818154019055604051908152a3565b60405162461bcd60e51b815260206004820152602660248201527f45524332303a207472616e7366657220616d6f756e7420657863656564732062604482015265616c616e636560d01b6064820152608490fd5b60405162461bcd60e51b815260206004820152602360248201527f45524332303a207472616e7366657220746f20746865207a65726f206164647260448201526265737360e81b6064820152608490fd5b60405162461bcd60e51b815260206004820152602560248201527f45524332303a207472616e736665722066726f6d20746865207a65726f206164604482015264647265737360d81b6064820152608490fd5b6001600160a01b0390811691821561224857169182156121f85760207f8c5be1e5ebec7d5bd14f71427d1e84f3dd0314c0f7b2291e5b200ac8c7c3b925918360005260348252604060002085600052825280604060002055604051908152a3565b60405162461bcd60e51b815260206004820152602260248201527f45524332303a20617070726f766520746f20746865207a65726f206164647265604482015261737360f01b6064820152608490fd5b60405162461bcd60e51b8152602060048201526024808201527f45524332303a20617070726f76652066726f6d20746865207a65726f206164646044820152637265737360e01b6064820152608490fd5b156122a057565b60405162461bcd60e51b815260206004820152602b60248201527f496e697469616c697a61626c653a20636f6e7472616374206973206e6f74206960448201526a6e697469616c697a696e6760a81b6064820152608490fd5b60001981146120115760010190565b60018060a01b038060fb5416906040805192836370a0823160e01b80825281600493308583015260209384916024998a915afa90811561248d57600091612460575b509560009560fd54965b87811061236657505050505050505090565b8161237082611e31565b5054168751858152308882015286818681855afa90811561245557600091612428575b50806123aa575b50506123a5906122f9565b612354565b8690858a9c949c518094819363266d6a8360e11b83528c8301525afa90811561241d576000916123eb575b506123e3906123a592612004565b98903861239a565b908682813d8311612416575b6124018183611e81565b810103126124135750516123a56123d5565b80fd5b503d6123f7565b88513d6000823e3d90fd5b908782813d831161244e575b61243e8183611e81565b8101031261241357505138612393565b503d612434565b89513d6000823e3d90fd5b908382813d8311612486575b6124768183611e81565b810103126124135750513861234a565b503d61246c565b85513d6000823e3d90fd5b1561249f57565b60405162461bcd60e51b815260206004820152602760248201527f4175746f5969656c643a20436f6e747261637420697320656d657267656e6379604482015266081c185d5cd95960ca1b6064820152608490fd5b156124fb57565b60405162461bcd60e51b815260206004820152601b60248201527f4175746f5969656c643a20496e76616c696420726563656976657200000000006044820152606490fd5b8181029291811591840414171561201157565b811561255d570490565b634e487b7160e01b600052601260045260246000fd5b9081602091031261020a5751801515810361020a5790565b60408051908101916001600160a01b03166001600160401b03831182841017610737576125fa926040526000806020958685527f5361666545524332303a206c6f772d6c6576656c2063616c6c206661696c656487860152868151910182855af16125f4612682565b916126b2565b80519082821592831561266a575b505050156126135750565b6084906040519062461bcd60e51b82526004820152602a60248201527f5361666545524332303a204552433230206f7065726174696f6e20646964206e6044820152691bdd081cdd58d8d9595960b21b6064820152fd5b61267a9350820181019101612573565b388281612608565b3d156126ad573d9061269382611eb9565b916126a16040519384611e81565b82523d6000602084013e565b606090565b9192901561271457508151156126c6575090565b3b156126cf5790565b60405162461bcd60e51b815260206004820152601d60248201527f416464726573733a2063616c6c20746f206e6f6e2d636f6e74726163740000006044820152606490fd5b8251909150156127275750805190602001fd5b60405162461bcd60e51b81529081906127439060048301611de8565b0390fd5b1561274e57565b60405162461bcd60e51b815260206004820152602360248201527f4175746f5969656c643a2043616e6e6f7420776974686472617720302073686160448201526272657360e81b6064820152608490fd5b156127a657565b60405162461bcd60e51b815260206004820152601e60248201527f4175746f5969656c643a20496e73756666696369656e742073686172657300006044820152606490fd5b9190820391821161201157565b6001600160a01b031680156128b45780600052603360205260406000205491808310612864576020817fddf252ad1be2c89b69c2b068fc378daa952ba7f163c4a11628f55a4df523b3ef92600095858752603384520360408620558060355403603555604051908152a3565b60405162461bcd60e51b815260206004820152602260248201527f45524332303a206275726e20616d6f756e7420657863656564732062616c616e604482015261636560f01b6064820152608490fd5b60405162461bcd60e51b815260206004820152602160248201527f45524332303a206275726e2066726f6d20746865207a65726f206164647265736044820152607360f81b6064820152608490fd5b60405163a9059cbb60e01b60208201526001600160a01b0392909216602483015260448083019390935291815261293f91611640606483611e81565b565b8051821015611e6b5760209160051b010190565b1561295c57565b60405162461bcd60e51b815260206004820152602c60248201527f46756e6374696f6e206d7573742062652063616c6c6564207468726f7567682060448201526b19195b1959d85d1958d85b1b60a21b6064820152608490fd5b156129bd57565b60405162461bcd60e51b815260206004820152602c60248201527f46756e6374696f6e206d7573742062652063616c6c6564207468726f7567682060448201526b6163746976652070726f787960a01b6064820152608490fd5b9060ff7f4910fdfa16fed3260ed0e7147f7cc6da11a60208b5b9406d12a635614ffd91435416600014612a4e575061293f90612c38565b604080516352d1902d60e01b81526020939192906001600160a01b038316908581600481855afa60009181612c09575b50612ade57845162461bcd60e51b815260048101879052602e60248201527f45524331393637557067726164653a206e657720696d706c656d656e7461746960448201526d6f6e206973206e6f74205555505360901b6064820152608490fd5b600080516020612f3983398151915203612bb357612afb83612c38565b7fbc7cd75a20ee27fd9adebab32041f755214dbc6bffa90cc0225b39da2e5c2d3b600080a2805115801590612bab575b612b36575b50505050565b82519260608401918483106001600160401b0384111761073757612ba195660819985a5b195960ca1b83600095869552602788527f416464726573733a206c6f772d6c6576656c2064656c65676174652063616c6c8389015287015281519101845af46125f4612682565b5038808080612b30565b506000612b2b565b835162461bcd60e51b815260048101869052602960248201527f45524331393637557067726164653a20756e737570706f727465642070726f786044820152681a58589b195555525160ba1b6064820152608490fd5b90918782813d8311612c31575b612c208183611e81565b810103126124135750519038612a7e565b503d612c16565b803b15612c6d57600080516020612f3983398151915280546001600160a01b0319166001600160a01b03909216919091179055565b60405162461bcd60e51b815260206004820152602d60248201527f455243313936373a206e657720696d706c656d656e746174696f6e206973206e60448201526c1bdd08184818dbdb9d1c9858dd609a1b6064820152608490fd5b60fd90815415612f14579160005b8254811015612f0b578315612e9c57612cee81611e31565b5060018060a01b039054166040908151906370a0823160e01b82526004308184015260209260249084818381875afa908115612e9157600091612e64575b5080612d47575b505050505050612d42906122f9565b612cd6565b84869a959651809363266d6a8360e11b8252838683015281875afa918215612e5957600092612e28575b50612dc39695948594909390929091848211612e1057600091612d9491956127eb565b9a5b51635d043b2960e11b81529182019384523060208501819052604085015290968793849291839160600190565b03925af19283612de7575b5050612d4291156000036122f957903880808080612d33565b813d8311612e09575b612dfa8183611e81565b8101031261020a573880612dce565b503d612df0565b610b4890612e1e9395612540565b916000809a612d96565b90918682813d8311612e52575b612e3f8183611e81565b8101031261241357505190612dc3612d71565b503d612e35565b8a513d6000823e3d90fd5b908582813d8311612e8a575b612e7a8183611e81565b8101031261241357505138612d2c565b503d612e70565b86513d6000823e3d90fd5b509190505b612ea757565b60405162461bcd60e51b815260206004820152603660248201527f4175746f5969656c643a20496e73756666696369656e74206c6971756964697460448201527579206163726f737320616c6c2070726f746f636f6c7360501b6064820152608490fd5b50919050612ea1565b505056fe4a11f94e20a93c79f6ec743a1954ec4fc2c08429ae2122118bf234b2185c81b8360894a13ba1a3210667c828492db98dca3e2076cc3735a920a3ca505d382bbca2646970667358221220b76f9c7474320a72215d8b15ec61f98ba65a8c980a88667ed83b3cf4c9f0d96e64736f6c63430008140033",
  "linkReferences": {},
  "deployedLinkReferences": {}
}