{
  "_format": "hh-sol-artifact-1",
  "contractName": "StrategyManager",
  "sourceName": "contracts/StrategyManager.sol",
  "abi": [
    {
      "inputs": [
        {
          "internalType": "address",
          "name": "_vault",
          "type": "address"
        },
        {
          "internalType": "address",
          "name": "_registry",
          "type": "address"
        },
        {
          "internalType": "address",
          "name": "_enclaveKey",
          "type": "address"
        },
        {
          "internalType": "uint256",
          "name": "_hackathonTimeLockDuration",
          "type": "uint256"
        }
      ],
      "stateMutability": "nonpayable",
      "type": "constructor"
    },
    {
      "inputs": [],
      "name": "InvalidShortString",
      "type": "error"
    },
    {
      "inputs": [
        {
          "internalType": "string",
          "name": "str",
          "type": "string"
        }
      ],
      "name": "StringTooLong",
      "type": "error"
    },
    {
      "anonymous": false,
      "inputs": [],
      "name": "EIP712DomainChanged",
      "type": "event"
    },
    {
      "anonymous": false,
      "inputs": [
        {
          "indexed": true,
          "internalType": "address",
          "name": "pausedBy",
          "type": "address"
        },
        {
          "indexed": false,
          "internalType": "uint256",
          "name": "timestamp",
          "type": "uint256"
        }
      ],
      "name": "EmergencyPaused",
      "type": "event"
    },
    {
      "anonymous": false,
      "inputs": [
        {
          "indexed": true,
          "internalType": "address",
          "name": "unpausedBy",
          "type": "address"
        },
        {
          "indexed": false,
          "internalType": "uint256",
          "name": "timestamp",
          "type": "uint256"
        }
      ],
      "name": "EmergencyUnpaused",
      "type": "event"
    },
    {
      "anonymous": false,
      "inputs": [
        {
          "indexed": true,
          "internalType": "address",
          "name": "protocol",
          "type": "address"
        },
        {
          "indexed": false,
          "internalType": "bool",
          "name": "status",
          "type": "bool"
        },
        {
          "indexed": false,
          "internalType": "uint256",
          "name": "riskScore",
          "type": "uint256"
        },
        {
          "indexed": false,
          "internalType": "uint256",
          "name": "maxAllocationBps",
          "type": "uint256"
        },
        {
          "indexed": false,
          "internalType": "string",
          "name": "zeroGHash",
          "type": "string"
        }
      ],
      "name": "ProtocolUpdated",
      "type": "event"
    },
    {
      "anonymous": false,
      "inputs": [
        {
          "indexed": true,
          "internalType": "uint256",
          "name": "proposalId",
          "type": "uint256"
        },
        {
          "indexed": true,
          "internalType": "address",
          "name": "canceler",
          "type": "address"
        }
      ],
      "name": "StrategyCanceled",
      "type": "event"
    },
    {
      "anonymous": false,
      "inputs": [
        {
          "indexed": true,
          "internalType": "address",
          "name": "agent",
          "type": "address"
        },
        {
          "indexed": true,
          "internalType": "uint256",
          "name": "proposalId",
          "type": "uint256"
        },
        {
          "indexed": false,
          "internalType": "uint256",
          "name": "totalApy",
          "type": "uint256"
        },
        {
          "indexed": false,
          "internalType": "uint256",
          "name": "portfolioRisk",
          "type": "uint256"
        }
      ],
      "name": "StrategyExecuted",
      "type": "event"
    },
    {
      "anonymous": false,
      "inputs": [
        {
          "indexed": true,
          "internalType": "uint256",
          "name": "proposalId",
          "type": "uint256"
        },
        {
          "indexed": false,
          "internalType": "uint256",
          "name": "executeAfter",
          "type": "uint256"
        },
        {
          "indexed": true,
          "internalType": "address",
          "name": "proposer",
          "type": "address"
        }
      ],
      "name": "StrategyProposed",
      "type": "event"
    },
    {
      "inputs": [],
      "name": "agentRegistry",
      "outputs": [
        {
          "internalType": "address",
          "name": "",
          "type": "address"
        }
      ],
      "stateMutability": "view",
      "type": "function"
    },
    {
      "inputs": [
        {
          "internalType": "uint256",
          "name": "_proposalId",
          "type": "uint256"
        }
      ],
      "name": "cancelProposal",
      "outputs": [],
      "stateMutability": "nonpayable",
      "type": "function"
    },
    {
      "inputs": [],
      "name": "cooldown",
      "outputs": [
        {
          "internalType": "uint256",
          "name": "",
          "type": "uint256"
        }
      ],
      "stateMutability": "view",
      "type": "function"
    },
    {
      "inputs": [],
      "name": "eip712Domain",
      "outputs": [
        {
          "internalType": "bytes1",
          "name": "fields",
          "type": "bytes1"
        },
        {
          "internalType": "string",
          "name": "name",
          "type": "string"
        },
        {
          "internalType": "string",
          "name": "version",
          "type": "string"
        },
        {
          "internalType": "uint256",
          "name": "chainId",
          "type": "uint256"
        },
        {
          "internalType": "address",
          "name": "verifyingContract",
          "type": "address"
        },
        {
          "internalType": "bytes32",
          "name": "salt",
          "type": "bytes32"
        },
        {
          "internalType": "uint256[]",
          "name": "extensions",
          "type": "uint256[]"
        }
      ],
      "stateMutability": "view",
      "type": "function"
    },
    {
      "inputs": [],
      "name": "emergencyPause",
      "outputs": [],
      "stateMutability": "nonpayable",
      "type": "function"
    },
    {
      "inputs": [],
      "name": "emergencyUnpause",
      "outputs": [],
      "stateMutability": "nonpayable",
      "type": "function"
    },
    {
      "inputs": [
        {
          "internalType": "uint256",
          "name": "_proposalId",
          "type": "uint256"
        }
      ],
      "name": "executeProposedStrategy",
      "outputs": [],
      "stateMutability": "nonpayable",
      "type": "function"
    },
    {
      "inputs": [
        {
          "internalType": "address[]",
          "name": "protocols",
          "type": "address[]"
        },
        {
          "internalType": "uint256[]",
          "name": "percentages",
          "type": "uint256[]"
        },
        {
          "internalType": "uint256",
          "name": "apy",
          "type": "uint256"
        },
        {
          "internalType": "uint256",
          "name": "risk",
          "type": "uint256"
        }
      ],
      "name": "executeStrategy",
      "outputs": [],
      "stateMutability": "nonpayable",
      "type": "function"
    },
    {
      "inputs": [
        {
          "internalType": "uint256",
          "name": "_proposalId",
          "type": "uint256"
        }
      ],
      "name": "getProposal",
      "outputs": [
        {
          "internalType": "address[]",
          "name": "protocols",
          "type": "address[]"
        },
        {
          "internalType": "uint256[]",
          "name": "percentages",
          "type": "uint256[]"
        },
        {
          "internalType": "uint256",
          "name": "executionTime",
          "type": "uint256"
        },
        {
          "internalType": "bool",
          "name": "executed",
          "type": "bool"
        },
        {
          "internalType": "bool",
          "name": "canceled",
          "type": "bool"
        },
        {
          "internalType": "address",
          "name": "proposedBy",
          "type": "address"
        },
        {
          "internalType": "uint256",
          "name": "totalApy",
          "type": "uint256"
        },
        {
          "internalType": "uint256",
          "name": "portfolioRisk",
          "type": "uint256"
        }
      ],
      "stateMutability": "view",
      "type": "function"
    },
    {
      "inputs": [
        {
          "internalType": "address",
          "name": "_protocol",
          "type": "address"
        }
      ],
      "name": "getProtocolInfo",
      "outputs": [
        {
          "internalType": "bool",
          "name": "isWhitelisted",
          "type": "bool"
        },
        {
          "internalType": "uint256",
          "name": "riskScore",
          "type": "uint256"
        },
        {
          "internalType": "string",
          "name": "name",
          "type": "string"
        },
        {
          "internalType": "string",
          "name": "zeroGStorageHash",
          "type": "string"
        },
        {
          "internalType": "uint256",
          "name": "lastUpdated",
          "type": "uint256"
        }
      ],
      "stateMutability": "view",
      "type": "function"
    },
    {
      "inputs": [],
      "name": "lastRebalance",
      "outputs": [
        {
          "internalType": "uint256",
          "name": "",
          "type": "uint256"
        }
      ],
      "stateMutability": "view",
      "type": "function"
    },
    {
      "inputs": [],
      "name": "maxPortfolioRisk",
      "outputs": [
        {
          "internalType": "uint256",
          "name": "",
          "type": "uint256"
        }
      ],
      "stateMutability": "view",
      "type": "function"
    },
    {
      "inputs": [
        {
          "internalType": "address",
          "name": "",
          "type": "address"
        }
      ],
      "name": "nonces",
      "outputs": [
        {
          "internalType": "uint256",
          "name": "",
          "type": "uint256"
        }
      ],
      "stateMutability": "view",
      "type": "function"
    },
    {
      "inputs": [],
      "name": "owner",
      "outputs": [
        {
          "internalType": "address",
          "name": "",
          "type": "address"
        }
      ],
      "stateMutability": "view",
      "type": "function"
    },
    {
      "inputs": [],
      "name": "paused",
      "outputs": [
        {
          "internalType": "bool",
          "name": "",
          "type": "bool"
        }
      ],
      "stateMutability": "view",
      "type": "function"
    },
    {
      "inputs": [],
      "name": "proposalCount",
      "outputs": [
        {
          "internalType": "uint256",
          "name": "",
          "type": "uint256"
        }
      ],
      "stateMutability": "view",
      "type": "function"
    },
    {
      "inputs": [
        {
          "internalType": "uint256",
          "name": "",
          "type": "uint256"
        }
      ],
      "name": "proposals",
      "outputs": [
        {
          "internalType": "uint256",
          "name": "executionTime",
          "type": "uint256"
        },
        {
          "internalType": "bool",
          "name": "executed",
          "type": "bool"
        },
        {
          "internalType": "bool",
          "name": "canceled",
          "type": "bool"
        },
        {
          "internalType": "address",
          "name": "proposedBy",
          "type": "address"
        },
        {
          "internalType": "uint256",
          "name": "totalApy",
          "type": "uint256"
        },
        {
          "internalType": "uint256",
          "name": "portfolioRisk",
          "type": "uint256"
        }
      ],
      "stateMutability": "view",
      "type": "function"
    },
    {
      "inputs": [
        {
          "internalType": "address[]",
          "name": "_protocols",
          "type": "address[]"
        },
        {
          "internalType": "uint256[]",
          "name": "_percentagesBps",
          "type": "uint256[]"
        },
        {
          "internalType": "uint256",
          "name": "_reportedApy",
          "type": "uint256"
        },
        {
          "internalType": "bytes",
          "name": "_sgxAttestationProof",
          "type": "bytes"
        }
      ],
      "name": "proposeStrategy",
      "outputs": [],
      "stateMutability": "nonpayable",
      "type": "function"
    },
    {
      "inputs": [
        {
          "internalType": "address",
          "name": "",
          "type": "address"
        }
      ],
      "name": "protocolRegistry",
      "outputs": [
        {
          "internalType": "bool",
          "name": "isWhitelisted",
          "type": "bool"
        },
        {
          "internalType": "uint256",
          "name": "riskScore",
          "type": "uint256"
        },
        {
          "internalType": "uint256",
          "name": "maxAllocationBps",
          "type": "uint256"
        },
        {
          "internalType": "string",
          "name": "name",
          "type": "string"
        },
        {
          "internalType": "string",
          "name": "zeroGStorageHash",
          "type": "string"
        },
        {
          "internalType": "uint256",
          "name": "lastUpdated",
          "type": "uint256"
        }
      ],
      "stateMutability": "view",
      "type": "function"
    },
    {
      "inputs": [
        {
          "internalType": "uint256",
          "name": "_maxRisk",
          "type": "uint256"
        }
      ],
      "name": "setMaxPortfolioRisk",
      "outputs": [],
      "stateMutability": "nonpayable",
      "type": "function"
    },
    {
      "inputs": [
        {
          "internalType": "uint256",
          "name": "_duration",
          "type": "uint256"
        }
      ],
      "name": "setTimeLockDuration",
      "outputs": [],
      "stateMutability": "nonpayable",
      "type": "function"
    },
    {
      "inputs": [
        {
          "internalType": "address",
          "name": "_newKey",
          "type": "address"
        }
      ],
      "name": "setTrustedEnclaveKey",
      "outputs": [],
      "stateMutability": "nonpayable",
      "type": "function"
    },
    {
      "inputs": [],
      "name": "timeLockDuration",
      "outputs": [
        {
          "internalType": "uint256",
          "name": "",
          "type": "uint256"
        }
      ],
      "stateMutability": "view",
      "type": "function"
    },
    {
      "inputs": [
        {
          "internalType": "address",
          "name": "_newOwner",
          "type": "address"
        }
      ],
      "name": "transferOwnership",
      "outputs": [],
      "stateMutability": "nonpayable",
      "type": "function"
    },
    {
      "inputs": [],
      "name": "trustedEnclaveKey",
      "outputs": [
        {
          "internalType": "address",
          "name": "",
          "type": "address"
        }
      ],
      "stateMutability": "view",
      "type": "function"
    },
    {
      "inputs": [
        {
          "internalType": "address",
          "name": "_protocol",
          "type": "address"
        },
        {
          "internalType": "bool",
          "name": "_status",
          "type": "bool"
        },
        {
          "internalType": "uint256",
          "name": "_riskScore",
          "type": "uint256"
        },
        {
          "internalType": "uint256",
          "name": "_maxAllocationBps",
          "type": "uint256"
        },
        {
          "internalType": "string",
          "name": "_name",
          "type": "string"
        },
        {
          "internalType": "string",
          "name": "_zeroGHash",
          "type": "string"
        }
      ],
      "name": "updateProtocol",
      "outputs": [],
      "stateMutability": "nonpayable",
      "type": "function"
    },
    {
      "inputs": [
        {
          "internalType": "bytes32",
          "name": "",
          "type": "bytes32"
        }
      ],
      "name": "usedSignatures",
      "outputs": [
        {
          "internalType": "bool",
          "name": "",
          "type": "bool"
        }
      ],
      "stateMutability": "view",
      "type": "function"
    },
    {
      "inputs": [],
      "name": "vault",
      "outputs": [
        {
          "internalType": "address",
          "name": "",
          "type": "address"
        }
      ],
      "stateMutability": "view",
      "type": "function"
    }
  ],
  "bytecode": "0x610160346200023457601f620029eb38819003918201601f19168301926001600160401b03929091838511838610176200021e5781608092849260409788528339810103126200023457620000548162000255565b90620000636020820162000255565b9160606200007386840162000255565b920151855193620000848562000239565b601a855260208501937f4175746f5969656c64205374726174656779204d616e6167657200000000000085528751620000bd8162000239565b6001815260208101603160f81b8152620000d7886200026a565b96610120978852620000e9836200043d565b98610140998a52519020918260e05251902061010099818b524660a05280519160208301937f8b73c3c69bb8fe3d512ecc4cf759cc79239f7b179b0ffacaa9a75d522b39400f85528284015260608301524660808301523060a083015260a0825260c0820199828b10908b11176200021e578990525190206080523060c052603c60065562015180600755604b600890815560098054600280546001600160a01b03199081166001600160a01b03998a161790915560038054821698909616979097179094556001600160a81b031990931691901b610100600160a81b0316179055801562000217576007555b339060045416176004556124009384620005eb853960805184505060a05184505060c05184505060e051845050518350505182610927015251816109500152f35b50620001d6565b634e487b7160e01b600052604160045260246000fd5b600080fd5b604081019081106001600160401b038211176200021e57604052565b51906001600160a01b03821682036200023457565b8051602091908281101562000309575090601f825111620002a857808251920151908083106200029957501790565b82600019910360031b1b161790565b90604051809263305a27a960e01b82528060048301528251908160248401526000935b828510620002ef575050604492506000838284010152601f80199101168101030190fd5b8481018201518686016044015293810193859350620002cb565b6001600160401b0381116200021e576000928354926001938481811c9116801562000432575b838210146200041e57601f8111620003e8575b5081601f8411600114620003815750928293918392869462000375575b50501b916000199060031b1c191617905560ff90565b0151925038806200035f565b919083601f1981168780528488209488905b88838310620003cd5750505010620003b3575b505050811b01905560ff90565b015160001960f88460031b161c19169055388080620003a6565b85870151885590960195948501948793509081019062000393565b85805284601f848820920160051c820191601f860160051c015b8281106200041257505062000342565b87815501859062000402565b634e487b7160e01b86526022600452602486fd5b90607f16906200032f565b805160209081811015620004cb5750601f8251116200046a57808251920151908083106200029957501790565b90604051809263305a27a960e01b82528060048301528251908160248401526000935b828510620004b1575050604492506000838284010152601f80199101168101030190fd5b84810182015186860160440152938101938593506200048d565b9192916001600160401b0381116200021e5760019182548381811c91168015620005df575b82821014620005c957601f811162000590575b5080601f83116001146200054357508192939460009262000537575b5050600019600383901b1c191690821b17905560ff90565b0151905038806200051f565b90601f198316958460005282600020926000905b888210620005785750508385969710620003b357505050811b01905560ff90565b80878596829496860151815501950193019062000557565b8360005283601f83600020920160051c820191601f850160051c015b828110620005bc57505062000503565b60008155018490620005ac565b634e487b7160e01b600052602260045260246000fd5b90607f1690620004f056fe6080604052600436101561001257600080fd5b6000803560e01c80623c898f146117af578063013cf08b1461173a5780630d1cfcae14611711578063106b9ca1146116f357806313ea36951461168157806316714bed146115d6578063276baf0f14610e8d5780633823be0014610ded5780634a4e3bd514610d8e57806351858e2714610d2c5780635c975abb14610d0957806371115eb214610c83578063787a08a614610c655780637ecebe0014610c2c5780637f7a442114610a0557806384b0196e146109115780638a2012381461087b5780638da5cb5b1461085257806394215ef014610474578063b324406d14610456578063c7f758a814610356578063da35c66414610338578063e0a8f6f514610279578063e52b32801461024c578063f2fde38b146101c8578063f978fd6114610199578063fbfa77cf146101705763ff96df441461015057600080fd5b3461016d578060031936011261016d576020600754604051908152f35b80fd5b503461016d578060031936011261016d576002546040516001600160a01b039091168152602090f35b503461016d57602036600319011261016d5760ff60406020926004358152600b84522054166040519015158152f35b503461016d57602036600319011261016d576101e2611c93565b600454906001600160a01b03906101fc33838516146120a6565b16908115610215576001600160a01b0319161760045580f35b60405162461bcd60e51b815260206004820152600f60248201526e496e76616c6964206164647265737360881b6044820152606490fd5b503461016d578060031936011261016d5760095460405160089190911c6001600160a01b03168152602090f35b503461016d57602036600319011261016d576004356102a360018060a01b036004541633146120a6565b808252600d6020526003604083200180546102c160ff8216156122f8565b60ff8160081c166103005761ff00191661010017905533907f6fcff4a61b6edfc3de8ed9284eeef18c2f5907a1777e3887becaedebcded39188380a380f35b60405162461bcd60e51b815260206004820152601060248201526f105b1c9958591e4818d85b98d95b195960821b6044820152606490fd5b503461016d578060031936011261016d576020600e54604051908152f35b503461016d576020908160031936011261016d576004358152600d82526040812090600282015490600383015493600484015490600585015492604051916103a9836103a2818a612337565b0384611d38565b604051916103bf836103a2816001809c0161237d565b60405197610100808a01908a528551809152836101208b019601925b81811061043a5750505050916103fa9187989388830390890152611e90565b604086019490945260ff81811615156060870152600882901c161515608086015260101c6001600160a01b031660a085015260c084015260e08301520390f35b83516001600160a01b03168752958401959284019282016103db565b503461016d578060031936011261016d576020600854604051908152f35b503461016d57608036600319011261016d576001600160401b039060043582811161084e576104a7903690600401611ec4565b909260243590811161084a576104c1903690600401611ec4565b6003546040516307feec1960e21b815233600482015291959190602090829060249082906001600160a01b03165afa90811561083f5790610509918691610810575b506121c5565b61051860055460065490612208565b4211156107d9578384855b8581106106f857506127100361069e57604435600381101580610693575b156106555785914260055560405191825260208201527f7f4467a4ca8be02143a9253e6c31362c7bc755929e5c68faf659636d307f1b8c60403392a36002546001600160a01b0316803b1561065157604051632a34e48960e11b8152606060048201526064810185905293608485019290865b81811061062b5750505083820360031901602485015285825293948594906001600160fb1b038111610627578560208682968196829560051b809285830137866044840152010301925af1801561061c5761060c5750f35b61061590611d0a565b61016d5780f35b6040513d84823e3d90fd5b8580fd5b909193602080600192838060a01b0361064389611cae565b1681520195019291016105b4565b8480fd5b60405162461bcd60e51b81526020600482015260166024820152755374726174656779206f7574206f6620626f756e647360501b6044820152606490fd5b506050821115610541565b60405162461bcd60e51b815260206004820152602c60248201527f546f74616c2070657263656e74616765206d75737420657175616c203130303060448201526b30204250532028313030252960a01b6064820152608490fd5b90916107058287866123ba565b356001600160a01b03811681036107d5576107b76107d0926127106107b08c6107a98860408f6107ca9960018060a01b03168152600c602052206107a160405161074e81611cef565b60ff835416151581526005600184015493602083019485526002810154604084015261077c60038201611daa565b606084015261078d60048201611daa565b6080840152015460a0820152511515612264565b51928d6123ba565b35906122c2565b0490612208565b936107c3848b896123ba565b3590612208565b9161222b565b610523565b8780fd5b60405162461bcd60e51b815260206004820152600f60248201526e436f6f6c646f776e2061637469766560881b6044820152606490fd5b610832915060203d602011610838575b61082a8183611d38565b8101906121ad565b38610503565b503d610820565b6040513d87823e3d90fd5b8280fd5b5080fd5b503461016d578060031936011261016d576004546040516001600160a01b039091168152602090f35b503461016d57602036600319011261016d576040906001600160a01b036108a0611c93565b168152600c6020522060ff8154166001820154916109076005820154916108f96108d860046108d160038501611daa565b9301611daa565b9160405196879615158752602087015260a0604087015260a0860190611e50565b908482036060860152611e50565b9060808301520390f35b503461016d578060031936011261016d5761094b7f0000000000000000000000000000000000000000000000000000000000000000611ef4565b6109747f0000000000000000000000000000000000000000000000000000000000000000611fee565b6040519260208401938085106001600160401b038611176109ef576109cc6109eb936109be96604052838352604051968796600f60f81b885260e0602089015260e0880190611e50565b908682036040880152611e50565b9146606086015230608086015260a085015283820360c0850152611e90565b0390f35b634e487b7160e01b600052604160045260246000fd5b503461016d576020600319818136011261084a5760043591828452600d815260408420916003830180549060ff91610a3f838216156122f8565b828160081c16610bef5760028601544210610baa5760ff191660011790558354869291835b828110610b2d5750506002546001600160a01b0316919050813b1561084a578291610ac391604051948580948193632a34e48960e11b835260606004840152610ab0606484018c612337565b9083820301602484015260018b0161237d565b84604483015203925af1801561083f57610b1a575b504260055560056004830154920154906040519283528201527f7f4467a4ca8be02143a9253e6c31362c7bc755929e5c68faf659636d307f1b8c60403392a380f35b610b2690949194611d0a565b9238610ad8565b9091929386905260018060a01b0381868a200154168852600c85528160408920541615610b6757610b5d9061222b565b9087939291610a64565b6064856040519062461bcd60e51b825280600483015260248201527f50726f746f636f6c2064656c69737465642073696e63652070726f706f73616c6044820152fd5b60405162461bcd60e51b815260048101869052601960248201527f54696d652d6c6f636b206973207374696c6c20616374697665000000000000006044820152606490fd5b60405162461bcd60e51b8152600481018690526015602482015274141c9bdc1bdcd85b081dd85cc818d85b98d95b1959605a1b6044820152606490fd5b503461016d57602036600319011261016d576020906040906001600160a01b03610c54611c93565b168152600a83522054604051908152f35b503461016d578060031936011261016d576020600654604051908152f35b503461016d57602036600319011261016d57600435610cad60018060a01b036004541633146120a6565b610e1081101580610cfc575b15610cc45760075580f35b60405162461bcd60e51b815260206004820152601060248201526f24b73b30b634b210323ab930ba34b7b760811b6044820152606490fd5b5062093a80811115610cb9565b503461016d578060031936011261016d57602060ff600954166040519015158152f35b503461016d578060031936011261016d57610d5260018060a01b036004541633146120a6565b600160ff1960095416176009556040514281527f2e31b3b12b9bb0e82c32f27df5f234fabc95a374f54fd287a7132878d5dc9fc360203392a280f35b503461016d578060031936011261016d57610db460018060a01b036004541633146120a6565b60ff19600954166009556040514281527fdacac23d353cc4fe05be85350ed1e8227ed9edf2323b7cb5aad3174e6a9ce1d660203392a280f35b503461016d57602036600319011261016d576040906001600160a01b03610e12611c93565b168152600c6020522060ff815416600182015491610e83600282015491610e75610e3e60038301611daa565b6005610e4c60048501611daa565b93015494604051978897151588526020880152604087015260c0606087015260c0860190611e50565b908482036080860152611e50565b9060a08301520390f35b503461016d57608036600319011261016d576004356001600160401b03811161084e573660238201121561084e57806004013590610eca82611d59565b91610ed86040519384611d38565b8083526024602084019160051b8301019136831161065157602401905b8282106115be57505050602435916001600160401b03831161016d573660238401121561016d57826004013592610f2b84611d59565b93610f396040519586611d38565b8085526024602086019160051b830101913683116115ba57602401905b8282106115aa575050506064356001600160401b03811161084e57610f7f903690600401611cc2565b50506003546040516307feec1960e21b81523360048201526001600160a01b0390911690602081602481855afa90811561159f5791610fc9602092602494869161158857506121c5565b610fd860ff60095416156120de565b6040516307feec1960e21b815233600482015292839182905afa90811561061c579061100a91839161081057506121c5565b815183510361154a5781511561150c57338152600a6020526040812054600181018091116114f857338252600a602052604082205580819282915b815183101561123c57611058838761223a565b5115611202576110739061106c848861223a565b5190612208565b936001600160a01b03611086848461223a565b51168452600c602052604084206005604051916110a283611cef565b60ff8154161515835260018101546020840152600281015460408401526110cb60038201611daa565b60608401526110dc60048201611daa565b6080840152015460a082019081526110f682511515612264565b516301e1338081018091116111ee5742116111b157611115848861223a565b5160408201511061115057611149916127106107b0602061114394015161113c888c61223a565b51906122c2565b9261222b565b9193611045565b60405162461bcd60e51b815260206004820152603360248201527f435249544943414c3a2041492065786365656465642054727573742053636f726044820152726520616c6c6f636174696f6e206c696d69742160681b6064820152608490fd5b60405162461bcd60e51b8152602060048201526015602482015274141c9bdd1bd8dbdb081a5b999bc8195e1c1a5c9959605a1b6044820152606490fd5b634e487b7160e01b86526011600452602486fd5b60405162461bcd60e51b815260206004820152601260248201527124b73b30b634b21030b63637b1b0ba34b7b760711b6044820152606490fd5b85856127108693036114965760085481116114515761125d60075442612208565b916040519461010086018681106001600160401b0382111761143d57604052855260208501528160408501528260608501528260808501523360a085015260443560c085015260e0840152600e548252600d6020526040822083518051906001600160401b03821161140c57600160401b821161140c576020906112e6838554818755866122d5565b0182855260208520855b838110611420575050505060208401519384516001600160401b03811161140c57600160401b811161140c5760206001840196611332838954818b558a6122d5565b019585526020852095855b8281106113f857866113f28787600560e089604081015160028501556003840161137960608301511515829060ff801983541691151516179055565b60808201511515815461ff0062010000600160b01b0360a086015160101b169260081b1690610100600160b01b0319161717905560c081015160048501550151910155600e5490604051908152817fc6fd105888945010352fa108bd92f928c52c9cea469f0bae4f1e94c1ea064c0360203393a361222b565b600e5580f35b60019060208351930192818a01550161133d565b634e487b7160e01b85526041600452602485fd5b82516001600160a01b0316818301556020909201916001016112f0565b634e487b7160e01b86526041600452602486fd5b60405162461bcd60e51b815260206004820152601760248201527f5269736b205468726573686f6c642045786365656465640000000000000000006044820152606490fd5b60405162461bcd60e51b815260206004820152603460248201527f546f74616c20616c6c6f636174696f6e206d7573742065786163746c7920657160448201527375616c203130303030204250532028313030252960601b6064820152608490fd5b634e487b7160e01b82526011600452602482fd5b60405162461bcd60e51b8152602060048201526016602482015275139bc81c1c9bdd1bd8dbdb1cc81cdc1958da599a595960521b6044820152606490fd5b60405162461bcd60e51b8152602060048201526016602482015275082e4e4c2f2e640d8cadccee8d040dad2e6dac2e8c6d60531b6044820152606490fd5b6108329150843d86116108385761082a8183611d38565b6040513d85823e3d90fd5b8135815260209182019101610f56565b8380fd5b602080916115cb84611cae565b815201910190610ef5565b503461016d57602036600319011261016d576115f0611c93565b6004546001600160a01b03919061160a90831633146120a6565b6009549161161b60ff8416156120de565b81161561164657610100600160a81b031990911660089190911b610100600160a81b03161760095580f35b60405162461bcd60e51b8152602060048201526013602482015272496e76616c696420656e636c617665206b657960681b6044820152606490fd5b503461016d57602036600319011261016d576004356116ab60018060a01b036004541633146120a6565b606481116116b95760085580f35b60405162461bcd60e51b8152602060048201526012602482015271125b9d985b1a59081c9a5cdac81b195d995b60721b6044820152606490fd5b503461016d578060031936011261016d576020600554604051908152f35b503461016d578060031936011261016d576003546040516001600160a01b039091168152602090f35b503461016d57602036600319011261016d57604060c0916004358152600d60205220600281015490600381015490600560048201549101549160405193845260ff81161515602085015260ff8160081c161515604085015260018060a01b039060101c166060840152608083015260a0820152f35b503461016d5760c036600319011261016d576117c9611c93565b602435801515810361084a576084356001600160401b0381116115ba576117f4903690600401611cc2565b60a4929192356001600160401b03811161062757611816903690600401611cc2565b94909360018060a01b0392611830846004541633146120a6565b61183f60ff60095416156120de565b83831615611c4e57606460443511611c095761271060643511611bb1576040519061186982611cef565b851515825261188c60208301936044358552604084019260643584523691612150565b906060830191825261189f368a8a612150565b60808401524260a08401528585168a52600c60205260408a20936118d284511515869060ff801983541691151516179055565b516001850155516002840155518051906001600160401b038211611af05781906118ff6003860154611d70565b601f8111611b7e575b50602090601f8311600114611b0f578b92611b04575b50508160011b916000199060031b1c19161760038301555b60808101518051906001600160401b038211611af0576119596004850154611d70565b601f8111611ab2575b506020908a601f8411600114611a1757938360a09896946005948a947fd007e93ef8c665fc75de90c7055fc615803f6bdd4c9c6f54cbbdfde98b3414c89d9c9a9892611a0c575b50508160011b916000199060031b1c19161760048501555b0151910155866040519586941515855260443560208601526064356040860152608060608601528160808601528585013782870184018890521694601f01601f19168101030190a280f35b0151905038806119a9565b5090600485018b5260208b20918b5b601f1985168110611a9a57509360018460059460a09a9896947fd007e93ef8c665fc75de90c7055fc615803f6bdd4c9c6f54cbbdfde98b3414c89d9c9a988c96601f19811610611a81575b505050811b0160048501556119c1565b015160001960f88460031b161c19169055388080611a71565b91926020600181928685015181550194019201611a26565b611ae090600486018c5260208c20601f850160051c81019160208610611ae6575b601f0160051c0190612196565b38611962565b9091508190611ad3565b634e487b7160e01b8a52604160045260248afd5b01519050388061191e565b9250600385018b5260208b20908b935b601f1984168510611b63576001945083601f19811610611b4a575b505050811b016003830155611936565b015160001960f88460031b161c19169055388080611b3a565b81810151835560209485019460019093019290910190611b1f565b611bab90600387018d5260208d20601f850160051c81019160208610611ae657601f0160051c0190612196565b38611908565b60405162461bcd60e51b815260206004820152602a60248201527f4d617820616c6c6f636174696f6e206d757374206265203c3d203130303030206044820152694250532028313030252960b01b6064820152608490fd5b60405162461bcd60e51b815260206004820152601860248201527f5269736b2073636f7265206d75737420626520302d31303000000000000000006044820152606490fd5b60405162461bcd60e51b815260206004820152601860248201527f496e76616c69642070726f746f636f6c206164647265737300000000000000006044820152606490fd5b600435906001600160a01b0382168203611ca957565b600080fd5b35906001600160a01b0382168203611ca957565b9181601f84011215611ca9578235916001600160401b038311611ca95760208381860195010111611ca957565b60c081019081106001600160401b038211176109ef57604052565b6001600160401b0381116109ef57604052565b604081019081106001600160401b038211176109ef57604052565b90601f801991011681019081106001600160401b038211176109ef57604052565b6001600160401b0381116109ef5760051b60200190565b90600182811c92168015611da0575b6020831014611d8a57565b634e487b7160e01b600052602260045260246000fd5b91607f1691611d7f565b9060405191826000825492611dbe84611d70565b908184526001948581169081600014611e2d5750600114611dea575b5050611de892500383611d38565b565b9093915060005260209081600020936000915b818310611e15575050611de893508201013880611dda565b85548884018501529485019487945091830191611dfd565b915050611de894506020925060ff191682840152151560051b8201013880611dda565b919082519283825260005b848110611e7c575050826000602080949584010152601f8019910116010190565b602081830181015184830182015201611e5b565b90815180825260208080930193019160005b828110611eb0575050505090565b835185529381019392810192600101611ea2565b9181601f84011215611ca9578235916001600160401b038311611ca9576020808501948460051b010111611ca957565b60ff8114611f325760ff811690601f8211611f205760405191611f1683611d1d565b8252602082015290565b604051632cd44ac360e21b8152600490fd5b50604051600081815491611f4583611d70565b80835292600190818116908115611fcc5750600114611f6f575b50611f6c92500382611d38565b90565b600080805291507f290decd9548b62a8d60345a988386fc84ba6bc95484008f6362f93160ef3e5635b848310611fb15750611f6c935050810160200138611f5f565b81935090816020925483858901015201910190918492611f98565b905060209250611f6c94915060ff191682840152151560051b82010138611f5f565b60ff81146120105760ff811690601f8211611f205760405191611f1683611d1d565b5060405160008160019182549261202684611d70565b80845293818116908115611fcc57506001146120495750611f6c92500382611d38565b600081815291507fb10e2d527612073b26eecdfd717e6a320cf44b4afac2b0732d9fcbe2b7fa0cf65b84831061208b5750611f6c935050810160200138611f5f565b81935090816020925483858901015201910190918492612072565b156120ad57565b60405162461bcd60e51b81526020600482015260096024820152682737ba1037bbb732b960b91b6044820152606490fd5b156120e557565b60405162461bcd60e51b815260206004820152603b60248201527f53747261746567794d616e616765723a20436f6e74726163742069732070617560448201527f736564202d20656d657267656e6379206d6f64652061637469766500000000006064820152608490fd5b9291926001600160401b0382116109ef5760405191612179601f8201601f191660200184611d38565b829481845281830111611ca9578281602093846000960137010152565b8181106121a1575050565b60008155600101612196565b90816020910312611ca957518015158103611ca95790565b156121cc57565b60405162461bcd60e51b8152602060048201526014602482015273139bdd08185d5d1a1bdc9a5e9959081859d95b9d60621b6044820152606490fd5b9190820180921161221557565b634e487b7160e01b600052601160045260246000fd5b60001981146122155760010190565b805182101561224e5760209160051b010190565b634e487b7160e01b600052603260045260246000fd5b1561226b57565b60405162461bcd60e51b815260206004820152602960248201527f5365637572697479204272656163683a2050726f746f636f6c206e6f742077686044820152681a5d195b1a5cdd195960ba1b6064820152608490fd5b8181029291811591840414171561221557565b918181106122e257505050565b611de89260005260206000209182019101612196565b156122ff57565b60405162461bcd60e51b815260206004820152601060248201526f105b1c9958591e48195e1958dd5d195960821b6044820152606490fd5b90815480825260208092019260005281600020916000905b82821061235d575050505090565b83546001600160a01b03168552938401936001938401939091019061234f565b90815480825260208092019260005281600020916000905b8282106123a3575050505090565b835485529384019360019384019390910190612395565b919081101561224e5760051b019056fea26469706673582212208f0b95f2b4fffd9512f47d60ac1abfdb9eb06c545e53d4af5ffa68a43bd9e20a64736f6c63430008140033",
  "linkReferences": {},
  "deployedLinkReferences": {}
}